:020000041000EA
:1000000000B5324B212058609868022188439860DF
:10001000D860186158612E4B002199600221596106
:100020000121F02299502B49196001219960352056
:1000300000F044F80222904214D00621196600F024
:1000400034F8196E01211966002018661A6600F04E
:100050002CF8196E196E196E052000F02FF8012189
:100060000842F9D1002199601B49196000215960AB
:100070001A491B48016001219960EB211966A021F2
:10008000196600F012F800219960164914480160C1
:100090000121996001BC002800D000471248134993
:1000A000086003C880F30888084703B5996A0420EC
:1000B0000142FBD001200142F8D103BD02B5186610
:1000C0001866FFF7F2FF186E186E02BD00000240BE
:1000D000000000180000070000035F00212200005C
:1000E000F4000018222000A00001001008ED00E03C
:1000F00000000000000000000000000074B24E7A12
:1001000000200420F7010010C3010010C5010010F9
:10011000C1010010C1010010C1010010C101001097
:10012000C1010010C1010010C1010010C701001081
:10013000C1010010C1010010C9010010CB01001065
:10014000CD010010CD010010CD010010CD01001037
:10015000CD010010CD010010CD010010CD01001027
:10016000CD010010CD010010CD010010CD01001017
:10017000CD010010CD010010CD010010CD01001007
:10018000CD010010CD010010CD010010CD010010F7
:10019000CD010010CD010010CD010010CD010010E7
:1001A000CD010010CD010010CD010010CD010010D7
:1001B000CD010010CD010010CD010010CD010010C7
:1001C00000BE00BE00BE00BE00BE00BEEFF3058054
:1001D000103800BEF2EB887160D8041080D804108B
:1001E0003402001090A31AE700201F49086006C8D7
:1001F00081F3088810471D48006800282FD10DA4FE
:100200000ECC002902D000F012F8F9E71849194A7B
:10021000002000E001C19142FCD1174988471749ED
:1002200088471749884700BEFDE701C901C29A42C5
:10023000FBD3704780D80410C0000020742A00202F
:1002400034020510000004200000042034020510D0
:10025000001004200010042000000000704709482E
:1002600005F044F80047000008ED00E0000000D071
:10027000782A0020184F0020113B0010D9060010EA
:10028000453C00105756000006005250ABB3605377
:10029000502A041006005250861C0302602A0410E3
:1002A000060052505422A29D642A041005005250A8
:1002B000DE65F46834020510F8B5C0460448054B05
:1002C00010B5834203D0044B002B00D0984710BDDB
:1002D000742A0020742A0020000000000648074904
:1002E000091A8B10C90FC91810B5491003D0044B57
:1002F000002B00D0984710BD742A0020742A0020DB
:100300000000000010B5074C2378002B09D1FFF73F
:10031000D5FF054B002B02D0044800E000BF0123AD
:10032000237010BDA82D002000000000182104102B
:10033000054B10B5002B03D00449054800E000BF71
:10034000FFF7CCFF10BDC04600000000AC2D002020
:100350001821041008007047F0B5070008370400A2
:100360000E0083B00760002923D0080037F0FAFAA6
:10037000050001900F280DD8012808D13378237289
:100380000021019B22686360D15403B0F0BD0028B6
:10039000F6D008E00022200001A926F0DDFC0700CD
:1003A000019B2060A3602A003100380006F01AF893
:1003B000E6E701481BF01CF918210410F0B5574678
:1003C000DE464E464546E0B50D00010087B01F00F1
:1003D000109B04AE0093C36804009246103142683B
:1003E00030001BF0D5F93378002B17D12368AD000E
:1003F0009846534645447B632B68002B69D01B68A5
:100400003B602B681F603800E3680133E36007B08E
:10041000F0BCBB46B246A946A046F0BD73689946FB
:10042000012B69D080239B0599456DD24B469D00D9
:10043000280005F0DDFF2A000021804605F0CCFFF2
:1004400018239C46A444634603930023A668A36034
:10045000002E26D09B4608339C46A4446346029354
:1004600005E012682A601B681D60002E19D0350057
:100470004946686B04F094FF8B0043441A68366861
:10048000002AEED1A2682A60029AA5601A602B6841
:10049000002B2FD05B4642469B008B469D50002E82
:1004A000E5D12068039B6168984202D0890005F07D
:1004B000AFFF4B466360434649462360504604F015
:1004C0006FFF0D005346AD0045447B632B68002B46
:1004D00095D1A3683B60A7603B68002B06D0586BA2
:1004E000616804F05DFF43468900CF502300083364
:1004F0002B6088E78B46B8E70023A3611833984642
:10050000A04443460393A0E71BF052F8F0B5DE4643
:1005100057464E464546E0B5B9B0040016A80491CA
:100520001BF09CFA654B0822002616939B46B023CD
:1005300004A98918CE500433CE52002200233492ED
:100540003593369237935E4B0C2558686D4284463E
:100550006544A8462D689B68AC460690039006A8A3
:1005600060440021036002931BF0FEF9554D564F85
:100570002B000EA814331693089609960A960B962C
:100580000C960D960695079709F008FC4F4B08212D
:1005900007939A4610230F9312AB002210939946AB
:1005A000302304A84118CA5416A807A911961BF0B5
:1005B000DBF9069A06AB0C3A11688C464A21634473
:1005C000D868884342490143D9600321996006AB4A
:1005D0009C46752316686644F35C002B4DD074234B
:1005E00030220499F25406A825F03AFD230008337E
:1005F00023600023636023720C9B002B56D00A9A61
:1006000093422FD80B9B0021D21A00922000002287
:10061000049326F049FD5346109806951435169517
:100620000793484504D0129B591C049305F0F0FE33
:100630000EA8079708F09CFD039B082106934346EC
:1006400004AA1B685218029916A8D1505B4616934B
:100650001BF042FA200039B0F0BCBB46B246A946B6
:10066000A046F0BD0B9A00219B1A04920093200033
:100670001300002226F018FDCDE7F36F0593002B41
:1006800019D01A001B7F002B03D075230122F254CE
:10069000A5E710000EF0F4FD059A13680D4A9B695A
:1006A0009342F2D0202105989847EEE7200010A948
:1006B00026F094FBAFE71AF08BFFC04648540410B5
:1006C000045E0410205E0410D05E0410A45D0410CB
:1006D000084000005503001070B506F0B1F819206D
:1006E00001F086FDD024802324069B046362112040
:1006F00001F07EFD80239B02A362102001F078FDB3
:1007000080235B02A36200220121102001F000FD82
:10071000FA20C00002F002FC164C0E2220001649FE
:1007200025F0A8FA23680C3B1B68E318DD6F002D49
:100730001DD02B7F002B0DD02723E95C200025F056
:1007400029FA25F0A3F90122042110200B4B01F016
:10075000F7FCFEE728000EF093FD2B68084A9B6922
:100760000A219342EAD0280098470100E6E71AF0F0
:100770002FFFC046C841002044210410DD1900109D
:100780005503001070B584680600002C20D02300AB
:10079000E06924332568984203D0636A591C05F048
:1007A00037FE230060680C3398420BD0E368591C75
:1007B00005F02EFE3821200005F02AFE002D07D07E
:1007C0002C00E4E73821200005F022FE002DF7D1AF
:1007D000736800219A00306805F0FEFD0023F36085
:1007E000B3603300306818337168984202D08900D2
:1007F00005F00EFE300070BDF0B5DE4657464E46A1
:100800004546E0B5134CA54401282DD0124E33685F
:10081000002B10D0736A74691D1DAC4206D2802172
:1008200001CC890005F0F4FDA542F8D87368306862
:10083000990005F0EDFD0948FFF7A4FF084808F00E
:10084000C5FB084B9D44F0BCBB46B246A946A0463A
:10085000F0BDC0466CECFFFF782A0020242E00205B
:100860009844002094130000FD4808F09FFB04AB5F
:100870001800FC499A46FFF76FFDFB490AA8FFF7ED
:100880006BFDFA4910A8FFF767FDF94916A8FFF7B5
:1008900063FDF8491CA8FFF75FFDF74922A8FFF7A1
:1008A0005BFDF64928A8FFF757FDF5492EA8FFF78D
:1008B00053FDF44934A8FFF74FFDF3493AA8FFF779
:1008C0004BFDF24940A8FFF747FDF14946A8FFF765
:1008D00043FDF0494CA8FFF73FFDEF4952A8FFF751
:1008E0003BFDEE4958A8FFF737FDED495EA8FFF73D
:1008F00033FDEC4964A8FFF72FFDEB496AA8FFF729
:100900002BFDEA4970A8FFF727FDE94976A8FFF714
:1009100023FDE8497CA8FFF71FFDE74982A8FFF700
:100920001BFDE64988A8FFF717FDE5498EA8FFF7EC
:1009300013FDE44994A8FFF70FFDE3499AA8FFF7D8
:100940000BFDE249A0A8FFF707FDE149A6A8FFF7C4
:1009500003FDE049ACA8FFF7FFFCDF49B2A8FFF7B1
:10096000FBFCDE49B8A8FFF7F7FCDD49BEA8FFF79E
:10097000F3FCDC49C4A8FFF7EFFCDB49CAA8FFF78A
:10098000EBFCDA49D0A8FFF7E7FCD949D6A8FFF776
:10099000E3FCD849DCA8FFF7DFFCD749E2A8FFF762
:1009A000DBFCD649E8A8FFF7D7FCD549EEA8FFF74E
:1009B000D3FCD449F4A8FFF7CFFCD34BFAA8190015
:1009C0009B46FFF7C9FCFFA8D0490430FFF7C4FCE1
:1009D000FFA8CF491C30FFF7BFFCFFA8CD4934303A
:1009E000FFF7BAFCFFA8CC494C30FFF7B5FCFFA8D5
:1009F000CA496430FFF7B0FCC94BFFA819007C302E
:100A00009846FFF7A9FCFFA8C6499430FFF7A4FC5D
:100A1000C54FFFA83900AC30FFF79EFCFFA8C349C3
:100A2000C430FFF799FCC24EFFA83100DC30FFF75D
:100A300093FCFFA8BF49F430FFF78EFCA120C00053
:100A4000BD496844FFF788FCA420C000BB49684446
:100A5000FFF782FCA720BA4BC000190068449946F2
:100A6000FFF77AFCAA20C000B6496844FFF774FC7F
:100A7000AD20C000B4496844FFF76EFCB020C00050
:100A8000B2496844FFF768FCB320C000B04968442D
:100A9000FFF762FCB620C000AE496844FFF75CFC7B
:100AA000B920C000AC496844FFF756FCBC20C00028
:100AB000AA496844FFF750FCBF20C000A849684419
:100AC000FFF74AFCC220C000A6496844FFF744FC77
:100AD000C520C000A4496844FFF73EFCC820C00000
:100AE000A2496844FFF738FCCB20C000A049684405
:100AF000FFF732FCCE20C0009E496844FFF72CFC73
:100B0000D120C0009C496844FFF726FCD420C000D7
:100B10009A496844FFF720FCD720C00098496844F0
:100B2000FFF71AFCDA20C00096496844FFF714FC6E
:100B3000DD20C00094496844FFF70EFCE020C000AF
:100B400092496844FFF708FCE320C00090496844DC
:100B5000FFF702FCE620C0008E496844FFF7FCFB6B
:100B6000E920C0008C496844FFF7F6FBEC20C00088
:100B70008A496844FFF7F0FBEF20C00088496844C9
:100B8000FFF7EAFBF220C00086496844FFF7E4FB68
:100B9000F520C00084496844FFF7DEFBF820C00060
:100BA00082496844FFF7D8FBFB20C00080496844B5
:100BB000FFF7D2FBFE20C0007E496844FFF7CCFB64
:100BC0007D487E496844FFF7C7FB822000017C49CD
:100BD0006844FFF7C1FB7B487B496844FFF7BCFBD7
:100BE0008520000179496844FFF7B6FB78487949C8
:100BF0006844FFF7B1FB8820000177496844FFF79C
:100C0000ABFB764876496844FFF7A6FB8B200001D2
:100C100074496844FFF7A0FB734874496844FFF7C0
:100C20009BFB8E20000172496844FFF795FB7148D9
:100C300071496844FFF790FB912000016F496844B7
:100C4000FFF78AFB6E486F496844FFF785FB9420E5
:100C500000016D496844FFF77FFB6C48D8E0C0464F
:100C600098440020542104105C21041060210410D9
:100C7000682104106C2104107421041078210410E0
:100C800080210410842104108C2104109021041070
:100C9000982104109C210410A4210410A821041000
:100CA000B0210410B4210410BC210410C021041090
:100CB000C8210410CC210410D4210410D821041020
:100CC000E0210410E4210410EC210410F0210410B0
:100CD0000022041008220410102204101C22041008
:100CE0002422041030220410382204103C22041064
:100CF000542A0410442204104C22041050220410E0
:100D0000582204105C22041064220410682204108B
:100D100070220410742204107C220410802204101B
:100D2000882204108C2204109422041098220410AB
:100D3000A0220410A42204104C2A0410AC22041097
:100D4000B4220410B8220410C0220410C4220410DB
:100D5000CC220410D8220410E0220410E422041053
:100D6000EC220410F0220410F8220410FC220410DB
:100D70000423041008230410102304101423041067
:100D80001C23041020230410282304102C230410F7
:100D90003423041038230410402304104423041087
:100DA0004C23041050230410582304105C23041017
:100DB0006423041068230410080800007023041042
:100DC00074230410380800007C23041080230410CE
:100DD0006808000088230410942304109808000079
:100DE0009C230410A0230410C8080000A8230410AA
:100DF000AC230410F8080000B4230410B823041036
:100E000028090000C0230410C4230410580900005E
:100E1000FD496844FFF7A0FA97200001FB496844A8
:100E2000FFF79AFAFA48FB496844FFF795FA9A20C7
:100E30000001F9496844FFF78FFAF848F849684417
:100E4000FFF78AFA9D200001F6496844FFF784FA0B
:100E5000F548F6496844FFF77FFAA0200001F449FD
:100E60006844FFF779FAF348F3496844FFF774FAE6
:100E7000A3200001F1496844FFF76EFAF048F149F8
:100E80006844FFF769FAA6200001EF496844FFF7BC
:100E900063FAEE48EE496844FFF75EFAA9200001C4
:100EA000EC496844FFF758FAEB4CEC4821006844E1
:100EB000FFF752FAAC200001E9496844FFF74CFA09
:100EC000E848E9496844FFF747FAAF200001E749DD
:100ED0006844FFF741FAE648E6496844FFF73CFA00
:100EE000B2200001E4496844FFF736FAE348E449D8
:100EF0006844FFF731FAB5200001E2496844FFF782
:100F00002BFAE148E1496844FFF726FAB8200001CE
:100F1000DF496844FFF720FADE48DF496844FFF7FD
:100F20001BFABB200001DD496844FFF715FADC48D5
:100F3000DC496844FFF710FABE200001DA49684432
:100F4000FFF70AFAD948DA496844FFF705FAC120E1
:100F50000001D8496844FFF7FFF9D748D7496844EA
:100F6000FFF7FAF9C4200001D5496844FFF7F4F906
:100F7000D448D5496844FFF7EFF9C7200001D349A9
:100F80006844FFF7E9F9D24DD24829006844FFF7D9
:100F9000E3F9CA200001D0496844FFF7DDF9CF48E2
:100FA000CF496844FFF7D8F9CD200001CD49684406
:100FB000FFF7D2F9CC48CD496844FFF7CDF9D020EE
:100FC0000001CB496844FFF7C7F9CA48CA496844D9
:100FD000FFF7C2F9D3200001C8496844FFF7BCF904
:100FE000C748C8496844FFF7B7F9D6200001C64989
:100FF0006844FFF7B1F9C548C5496844FFF7ACF943
:10100000D9200001C3496844FFF7A6F9C248C34983
:101010006844FFF7A1F9DC200001C1496844FFF7EB
:101020009BF9C048C0496844FFF796F9DF200001EA
:10103000BE496844FFF790F9BD48BE496844FFF7D0
:101040008BF9E2200001BC496844FFF785F9BB48F1
:10105000BB496844FFF780F9E5200001B9496844BD
:10106000FFF77AF9B848B9496844FFF775F9E820FD
:101070000001B7496844FFF76FF9B648B6496844BC
:10108000FFF76AF9EB200001B4496844FFF764F9FF
:10109000B348B4496844FFF75FF9EE200001B24954
:1010A0006844FFF759F9B148B1496844FFF754F96A
:1010B000F1200001AF496844FFF74EF9AE48AF494F
:1010C0006844FFF749F9F4200001AD496844FFF78F
:1010D00043F9AC48AC496844FFF73EF9F7200001FA
:1010E000AA496844FFF738F9A948AA496844FFF7B4
:1010F00033F9FA200001A8496844FFF72DF9A74801
:10110000A7496844FFF728F9FD200001A549684474
:10111000FFF722F9A448A5496844FFF71DF980208C
:101120004001A3496844FFF717F9A248A24968445F
:10113000FFF712F9A148A2496844FFF70DF9A14849
:10114000A1496844FFF708F9832040019F4968449A
:10115000FFF702F99E489F496844FFF7FDF89E4853
:101160009E496844FFF7F8F89D485D496844FFF7D9
:10117000F3F8862040019B496844FFF7EDF89A4850
:101180009A496844FFF7E8F899489A496844FFF794
:10119000E3F8994849466844FFF7DEF889204001A2
:1011A00096496844FFF7D8F8954841466844FFF7E8
:1011B000D3F8944894496844FFF7CEF8934839002F
:1011C0006844FFF7C9F88C20400191496844FFF753
:1011D000C3F8904831006844FFF7BEF88E488F4945
:1011E0006844FFF7B9F88E488E496844FFF7B4F8B1
:1011F0008F2040018C496844FFF7AEF88B48594670
:101200006844FFF7A9F813E1CC230410D02304109D
:1012100088090000D8230410DC230410B80900005A
:10122000E4230410E8230410E8090000F02304106C
:10123000F4230410180A0000FC23041000240410F6
:10124000480A0000082404100C240410780A000046
:10125000142404101824041020240410A80A0000E8
:10126000F8210410D80A000028240410382404109F
:10127000080B00004024041044240410380B000024
:101280006C7804104C240410680B0000F02A041041
:1012900054240410980B00005C24041060240410F3
:1012A000C80B0000682404106C240410F80B000024
:1012B0007424041078240410280C0000B43D041099
:1012C00080240410580C0000882404108C2404107E
:1012D00094240410880C000098240410B80C00001A
:1012E000A0240410A4240410E80C0000AC24041072
:1012F000BC240410180D0000C4240410D0240410D1
:10130000480D0000D8240410E8240410780D0000D3
:10131000F0240410FC240410A80D0000042504107F
:1013200010250410D80D00001825041024250410E1
:10133000080E00002C2504103C250410380E000077
:10134000442504104C250410680E00005425041098
:1013500064250410980E00006C25041074250410F8
:10136000C80E00007C25041084250410F80E00002F
:101370008C25041094250410280F00009C250410CF
:10138000A4250410580F0000AC250410B02504104B
:10139000880F0000B8250410C4250410B80F000001
:1013A000CC250410D8250410E80F0000E025041017
:1013B000EC25041018100000F42504103010000073
:1013C00000260410481000000826041014260410FB
:1013D000781000001C26041090100000282604102D
:1013E000A810000030260410D81000003826041081
:1013F000F01000003C2604100811000044260410E0
:1014000038110000501100004C2604106811000033
:101410005426041098110000B01100005C2604103E
:10142000C81100006426041068260410F81100009A
:10143000BC48BD496844FEF78FFFBC48BC496844BE
:10144000FEF78AFF92204001BA496844FEF784FF04
:10145000B948BA496844FEF77FFFB948B9496844BA
:10146000FEF77AFFB848B9496844FEF775FF952042
:101470004001B7496844FEF76FFFB648B649684473
:10148000FEF76AFFB548B6496844FEF765FFB54800
:10149000B5496844FEF760FF98204001B3496844AD
:1014A000FEF75AFFB248B3496844FEF755FFB24809
:1014B000B2496844FEF750FFB14829006844FEF77E
:1014C0004BFF9B235B016B441800AE49FEF744FFC2
:1014D000AD4821006844FEF73FFFAC4B00261D00DD
:1014E000994618354A461D6001235360FE2348463D
:1014F0009B05136168219660D66056619661103035
:101500001AF0F2F84B465B680400984200D9E6E016
:1015100056469F4A7168306807F0F8FA4B465B6898
:10152000070019009B4603F03BFF4A4612688B00F8
:101530009B588846002B12D01C685B46B3461E00A1
:10154000656BAF4200D196E02468002C06D0656B35
:101550003100280003F024FF8845F2D05E46382091
:1015600004F046FF00220300040004C332680C307C
:10157000934675686060002A00D1A8E003950F2D9E
:1015800000D997E0012D00D0C0E01378237300212B
:10159000039B62682000A360D1542300B269243009
:1015A0009346F5691C33E061002A00D193E003956E
:1015B0000F2D72D8012D00D0A4E013782422A3545B
:1015C0000021039BE2692362D15401233A00009376
:1015D000414623004846FEF7F1FE6E4B30366B4421
:1015E0009E4296D19B235B016B4498691C0020337B
:1015F000984203D0236A591C04F00AFF2300206894
:101600000833984232D0A368591C04F001FF23002C
:10161000303BA245E9D100235F4C00222360002328
:10162000A260E36022616361A261E361226263629E
:1016300008232020636004F0DBFE0500636820605F
:10164000581E400880002D188020800004F0D0FE35
:1016500080239B00C3182860656123616562E06197
:101660002362A060E060A061FFF7EBF82300303B4D
:10167000A245BAD1CFE75B465A68A3689A4200D028
:1016800062E7002A07D05B466168186840F084FC76
:10169000002800D058E75E469FE71800002203A903
:1016A00025F05AFB039BE06163622A00594604F06F
:1016B00099FE85E71800002203A925F04DFB039B46
:1016C0006060E3602A00594604F08CFE5FE7002D5D
:1016D00023D103955BE78D421FD1039570E7012865
:1016E00018D080239B0598421AD28700380004F056
:1016F0007FFE3A003100050004F06EFE4B461D608F
:101700005C6005E7002D00D15AE7CEE7002D00D13F
:101710003DE7D7E74B469E61F0E7204819F068FFA8
:1017200019F046FF10120000702604102812000065
:101730007022041078260410581200007C22041035
:10174000701200008026041088120000542A041031
:1017500088260410B81200004C220410D012000099
:1017600090260410E8120000582204109826041055
:10177000181300004C2A041030130000A026041097
:1017800048130000A826041078130000242E00201F
:1017900007690FC790130000782A00201821041051
:1017A000F8B5DE4657464E4645460400E0B58B4642
:1017B000456A4169E269A3696F1AB8109B1A421E13
:1017C000D2019B109B18A6682269921B92109B184D
:1017D0003D4A934200D172E0236862689846EB1A52
:1017E0009B10D31A012B18D98020800004F000FE32
:1017F0005B4668601A68A3691A60636A1A1D6262B0
:1018000080225B6892009A18E3612262A361F0BCB7
:10181000BB46B246A946A046F8BD831C99465B006C
:101820009A4234D8151E00D1012580230232AD180A
:101830009B059D4246D2A80004F0DAFD4B46824645
:10184000EA1A5208636A92005244616990461A1D6E
:10185000914203D04046521A40F04EFC6368206823
:10186000990004F0D5FD534665602360802243460D
:10187000920094463D0063611B684544E360634405
:1018800023612B686562E36163442362ACE74B46E6
:10189000D21A5208920090440435414506D9A94213
:1018A000E4D040466A1A40F027FCDFE7A942DDD0C9
:1018B0006A1A381D801A404440F01EFCD6E70348DF
:1018C00019F0AEFE19F074FEFFFFFF1FB0260410E2
:1018D000F0B5D6464F4646460B008146C0B53D4A58
:1018E00084B0884603CB07F011F94B465B680600CD
:1018F00019009A4603F054FD4A4612688B009B5823
:101900000F00002B0DD01C68656BAE4234D02468EC
:10191000002C06D0656B5146280003F041FD8F4234
:10192000F3D0382004F064FD0022030004C34246D3
:101930001268040092464246556852460C30606078
:10194000002A3ED003950F2D2CD8012D3ED11378BF
:101950002373220000232432A5604355E261242230
:101960002362A35401330093320023003900484618
:10197000FEF724FD1C300FE043465A68A3689A42E4
:10198000C5D1002A06D043466168186840F004FBC0
:101990000028BCD120001C3004B0E0BCBA46B146DF
:1019A000A846F0BD1800002203A925F0D5F9039B35
:1019B0006060E3602A00514604F014FD039D6068F6
:1019C000C7E7002DC5D0044819F012FE002DC0D085
:1019D000F0E7C04607690FC718210410F0B5DE46CE
:1019E00057464E464546E0B593B0102806D013B092
:1019F000F0BCBB46B246A946A046F0BD4B07F6D5A3
:101A0000D02301211B065B68C94C5B0C22680B408C
:101A10000593002A20D1002BE9D1C64EC64A77692A
:101A20001370B36821609846F3683C1D994633698A
:101A30009A46736A1D1DAC4206D2802101CC8900F2
:101A400004F0E6FCA542F8D84346B3614B46F36187
:101A5000534677623362CAE7511E07290FD8B5484B
:101A6000056A8169043DA94204D008C1816101323F
:101A70002260BCE705A9FFF793FE2268F7E7092A71
:101A800000D139E10A2AB2D1002BB0D0A94A50695D
:101A9000536A9569D6691B1A9B10013BAD1BAD10AB
:101AA000DB015B19916815696D1AAD105B19082B84
:101AB00000D024E1A04B98461F78D368CB1A9A1027
:101AC000002B00DAC3E1FE267600B34200DD89E197
:101AD0000B681F4343467FB21F70531C0E1D7F2BA4
:101AE00006DDDE11B500F6019B1B2E589B00F61893
:101AF00033685B003B435BB2961C00D5B7E10F0037
:101B000008377F2E06DDF711BD00FF01F61B2F58A9
:101B1000B600BF193E68B60033435BB2D61C00D591
:101B2000A1E10F000C377F2E06DDF711BD00FF018C
:101B3000F61B2F58B600BF193E68F60033435BB260
:101B4000161D00D58BE10F0010377F2E06DDF71133
:101B5000BD00FF01F61B2F58B600BF193E683601C5
:101B600033435BB2561D00D575E10F0014377F2E4D
:101B700006DDF711BD00FF01F61B2F58B600BF1997
:101B80003E68760133435BB2961D00D577E10F00C6
:101B900018377F2E06DDF711BD00FF01F61B2F5809
:101BA000B600BF193E68B60133435BB2073200D5B9
:101BB00061E11C317F2A06DDD1118E00C901521A64
:101BC00031589200891809680CA8C9011943434685
:101BD000C9B21970FEF79AFC01230022009300217C
:101BE000564B0CA825F060FA060008AB0693036874
:101BF00008360500B34200D145E106938368089397
:101C00006B68079300232E600C986B602B720EABF1
:101C1000984203D00E99013104F0FAFB079B484F1C
:101C20001A0038000699029324F024F8036805008E
:101C30000C3B1B68C318DE6F002E00D137E1337FE9
:101C4000002B00D1C0E02723F15C280023F0A2FF85
:101C500023F01CFF079B3B4A19000698029306F0ED
:101C600055FF394B80469B465B6819009A4603F046
:101C700097FB5A4612688B009B588946002B18D058
:101C80001D68069B6E6B0393079B0293002B00D18C
:101C9000C7E03B0047469846B7425BD02D68002D11
:101CA00006D06E6B5146300003F07AFB8945F3D0C5
:101CB00047460B223800254923F0DCFF3B680C3BEC
:101CC0001B68FB18DD6F002D00D1F0E02B7F002B8F
:101CD00000D1DEE02723E95C380023F05BFF23F02E
:101CE000D5FE069808AB984203D00899013104F05C
:101CF0008FFB002323607AE60A23236077E6104FE8
:101D000015223800124923F0B5FF3B680C3B1B68D5
:101D1000FB18DD6F002D00D1C9E02B7F002B46D0D2
:101D20002723E95C380023F035FF23F0AFFEE0E71E
:101D30009C440020782A00200D4F0020C02304106E
:101D4000C841002007690FC7242E0020E026041098
:101D5000EC260410029BAA6893429FD11A0069687E
:101D6000039840F019F9002898D147460E225149AE
:101D7000380023F07FFF06A95846FFF7A9FD06C8E3
:101D8000380023F077FF036805000C3B1B68C3187D
:101D9000DE6F002E00D18AE0337F002B34D0272362
:101DA000F15C280023F0F6FE23F070FE99E728008E
:101DB0000DF066FA2B68404A9B690A219342B1D024
:101DC000280098470100ADE730000DF059FA33685C
:101DD000394A9B690A21934200D136E7300098477F
:101DE000010032E7D3119E00DB013658D31A9B0065
:101DF0009B591F4343467FB21F70531C00D46DE6AE
:101E0000DE43F609F6436DE630000DF039FA33682B
:101E1000294A9B690A219342C3D0300098470100A8
:101E2000BFE73B0057469A46B0450BD02D68002DC2
:101E300006D06E6B3900300003F0B2FA8945F3D05A
:101E4000574636E7AB68002BF0D157468EE7D343B1
:101E5000DB09DB43C7E7F743FF09FF438AE6F743A4
:101E6000FF09FF4374E6F743FF09FF435EE6F743CC
:101E7000FF09FF4348E6D143C909C9439DE6F7433B
:101E8000FF09FF4388E61022310008A804F0AAFAEF
:101E9000B6E628000DF0F4F92B68074A9B690A2181
:101EA000934200D118E728009847010014E719F081
:101EB0008FFBC046042704105503001010B5012005
:101EC000FEF79AFC10BDC046D0231B061B68F0B578
:101ED0009A00454690464146894ADE465258574642
:101EE00093465A1E934130224E465B421A401300DD
:101EF000844AE0B5944683B063440193824B08263C
:101F00009A463500083DEA081300019908339B0002
:101F10005C58002C23D05B46002B2AD001230F27CE
:101F2000994639002140274213D04B46524640463D
:101F3000AB4012581A420CD1072208002A409200E6
:101F400090400200EB0871483C339B001A50280077
:101F5000D84724090135002C01D0B542E1D3083619
:101F6000282ECED103B0F0BCBB46B246A946A0464F
:101F7000F0BD0F2319002140234207D047460E3BF6
:101F8000AB406148C059184200D18DE02309F11FD0
:101F9000002BE4D00F22100018401A420FD001236A
:101FA00045468B40584A52591A4208D10722CB085D
:101FB000114089008840554A3C339B009850230AC1
:101FC000B11F002BCBD00F22100018401A420FD0A7
:101FD000012345468B404C4A52591A4208D10722E8
:101FE000CB08114089008840484A3C339B009850F8
:101FF000230B711F002BB2D00F22100018401A4281
:1020000041D1230C311F002BA9D00F221000184002
:102010001A4252D1230DF11E002BA0D00F22100026
:1020200018401A425AD1230EB11E002B97D00F220E
:10203000100018401A420FD0012345468B40324A07
:1020400052591A4208D10722CB0811408900884012
:102050002E4A3C339B009850240F721E002C00D156
:102060007DE701235146404693400958194200D06C
:1020700075E70721D3080A40920094403C33234A75
:102080009B009C506BE7012345468B401E4A5259EA
:102090001A42B6D10722CB081140890088401B4A5A
:1020A0003C339B009850ACE707231D40AD00A9408E
:1020B000164B3C329200D15068E7012345468B40D5
:1020C000114A52591A42A5D10722CB081140890062
:1020D00088400E4A3C339B0098509BE701234546BD
:1020E0008B40094A52591A429DD10722CB08114010
:1020F00089008840054A3C339B00985093E7C046CE
:10210000F449002000410140CC4E00200040014035
:102110000A4B80009C4604236044002901D00C2314
:102120000821002A00D10B00026853400C221A40FB
:1021300080235B01184302607047C04604C0014021
:10214000F8B51E00D0231B061C680700631E9C41C7
:10215000302364421C40224B15009C46C3080720D4
:102160001A003840800081403C321E48644492008E
:102170009B001150E418002D11D080239B011C43BB
:10218000D02321601B061C68174FA4003B59002B6D
:1021900011D0002E1ED03E51002D16D1F8BDC02307
:1021A0009B011C43D02321601B061C680E4FA4001A
:1021B0003B59002BEDD1002EEED000220D200B4913
:1021C0003E5100F037F9002DE8D001210D2000F03C
:1021D000CFF8E3E70D20054900F020FADBE7C04621
:1021E0000041014000400140F4490020C91E001098
:1021F0000123D0228340120693629361094A83002F
:102200009446402263441968C0004A40C0211140EE
:102210008022520113431960034B9C4605236044FE
:102220004360704704C0014000400140024B186801
:102230008007C00F7047C04600C0064070B5EFF37E
:10224000108C72B60D4D2B68002BFCD0BFF35F8F46
:102250000724CB08C618C05C01230C40A3401C0017
:102260000440034207D103433370BFF35F8F2C60F8
:102270008CF3108870BD100001F002FD2C0100D01D
:10228000F8B54746CE46884680B5EFF3108C72B657
:10229000214D2C68002CFCD0BFF35F8F9A422CD8C4
:1022A000D4080727055D061901241740BC402C42BD
:1022B0001FD007210127894609E0D408055D0619CA
:1022C0004C4639001440A1400C00294211D0013283
:1022D0009342F2D201204042BFF35F8F00220E4BA7
:1022E0001A608CF3108800280FDBC0BCB946B046DA
:1022F000F8BD2C4310003470EEE7BFF35F8F00236E
:102300002B608CF31088012040424346002BECD018
:10231000089801F0B5FCC0462C0100D00021044B08
:10232000044ABFF35F8F02C39342FAD17047C0469D
:10233000000100D0800100D0044A1078431CDBB2B9
:10234000172B00D9102313707047C046BC1E002005
:1023500000B5054B83B00100009318221F230348EA
:10236000FFF78EFF03B000BD14270410044A0020BD
:1023700001238340002904D0034A1360034A1360F9
:102380007047034A1360FBE780E200E000E100E0F1
:1023900080E100E001238340014A13607047C0469A
:1023A00000E200E0084B10309B688000C358002B0F
:1023B00007D0064A00209B1A2F229A424041C0B201
:1023C00070470020FCE7C04600ED00E0C01E002082
:1023D000024B10309B688000C058704700ED00E051
:1023E00070B50D00EFF3108672B60F4A1368002B1C
:1023F000FCD0BFF35F8F0D4B10309B6884001B59DE
:102400000B4A934203D09D4201D001F051FC074B8F
:102410009B681D51BFF35F8FBFF35F8F0022024B9C
:102420001A6086F3108870BD240100D000ED00E032
:10243000CD010010F0B557464E46DE464546E0B5A4
:1024400085B0060002911700EFF3108B72B6674A51
:102450001368002BFCD0BFF35F8F0025644B5D57E2
:102460009A46002D00DAA4E06B00624C03935B19DE
:102470009B009846A146C1444B4652469B79103674
:1024800013705D4BB2009B68019299580B1B2F2B68
:1024900034D95A4B994200D0A4E0039B584A9C4639
:1024A000584B6544AD006353434602336519E41845
:1024B000554B0121043B1B1B1B055B0D13436B801C
:1024C000524BEF71AB80FF23AB71029BAB604B466D
:1024D0000B431900484B019A9B689950BFF35F8FDB
:1024E000BFF35F8F0022414B1A608BF3108805B059
:1024F000F0BCBB46B246A946A046F0BD01200A008A
:102500008243D379BB422FD845464E4613004049FB
:102510001B1B5B415943090D3A4B63533A4B023540
:102520006519043B5B1B1B05354D5B0D2B4373800D
:102530000426B446E0444444131F1B1B4C46A171BF
:1025400002991B05A16049465B0D2B43A380314BCB
:10255000E77101431360BDE75800C01880002018E0
:10256000C679BE422BD902000623D356002BF3DADC
:10257000101D82462848804604267642B446E1442F
:1025800050464E46361A3005400D824656461C4887
:10259000957106439680039A944665441D4AAD00A2
:1025A000641922604246A371029BA280E771A36076
:1025B00090E701F07DFB002553465D5754E7101D61
:1025C000824690884005001584464046D4446646BD
:1025D00004302018301AE0260005400D3602304342
:1025E0008046C9E701F064FB57E7C046240100D0EC
:1025F000124F0020C01E002000ED00E0CD010010B1
:1026000000E0FFFF00A1FFFFF01E002001BDFFFF63
:10261000AAAA00000148804701BD0000F0B5DE46CF
:1026200057464E464546E0B50C0083B0EFF310899F
:1026300072B6584A1368002BFCD0BFF35F8F564B1D
:102640009A68030010339F00D559544A904695422A
:1026500032D0A54243D0524EAA1B2F2A2CD8012299
:102660008240924651464F4A1268114001915146AC
:102670004D4A1160BFF35F8FEFF305829346002A46
:1026800033D101232A009A4393689C4208D177E012
:102690004B005B189B00F3189968A1422AD01A00DE
:1026A000062151560029F3DA019B002B19D052461E
:1026B0003E4B1A603B4B1A60374B9B68DD51BFF3B2
:1026C0005F8FBFF35F8F0022324B1A6089F310884F
:1026D00003B0F0BCBB46B246A946A046F0BD15000B
:1026E000EAE75246304B1A60E6E79342C9D001F060
:1026F000DFFAC6E706215956002921DB4A005018A7
:10270000800034188046A0689860E079D87106206F
:1027100020569871002824DBA488F01A640524153B
:1027200044440019E0240005400D24022043988011
:1027300052181F4B9200B6181A781970B271B3E78D
:10274000594600290FD1FF3191711A4991801849DA
:102750000A789A71184A9B1B5B415A43120D0A7002
:10276000A2E71648E3E7164A1649D21A083A500279
:10277000400D01439980144952080A43DA8093E7D7
:102780000621515613000029B8DA5A46002AEAD128
:102790004546DCE7240100D000ED00E0CD0100104B
:1027A000C01E002000E100E080E100E080E200E0E7
:1027B000124F002001BDFFFFAAAA000001BD0000CA
:1027C000FA1E002000F0FFFF00F8FFFF70B5EFF3E6
:1027D000058101240443EFF3108C72B6214A13687B
:1027E000002BFCD0BFF35F8F1F4B05001F4AED1A73
:1027F0006D416A43120D1E4D8900AE6852B2765883
:10280000A6421CD00621595691421CD0122159567D
:10281000914222D01E215956914220D02A21595648
:102820000324914210D0134B19781A708171BFF3B1
:102830005F8F00220B4B1A608CF3108870BDAB6861
:102840000D4C5C50EFE700246100091989005B180A
:10285000FF21997109499980E5E70124F4E70224F1
:10286000F2E7C046240100D0C01E0020AAAA000042
:1028700000ED00E0124F0020CD01001001BDFFFF70
:10288000054B064A1360064A136053609360D36099
:1028900013615361936170478080808000E400E0A1
:1028A00004E400E000B5074B83B001000093002270
:1028B00005230548FFF7E4FC002801DB1F23181A55
:1028C00003B000BD30270410174F0020024B9C4678
:1028D00061448900016070474000003410B5040075
:1028E000FFF72AFD01002000FFF7F0FFFF2323710F
:1028F000BFF35F8F10BDC04610B50400FFF71CFD8D
:1029000001002000FFF7E2FFFF23A380BFF35F8FEA
:1029100010BDC04610B504000120FFF719FD044B9F
:102920009C46604480002060BFF35F8F10BDC046AE
:1029300040000034034B9C46614489000160BFF3B2
:102940005F8F70474000003483680B4810B58446A1
:1029500061446244090112019A18591854684B687D
:1029600001209C4201D802D00020C0B210BD1268E4
:102970000B689A42F9D8F7E7FFFFFF0F0A4B196877
:10298000EFF3108072B60A68002AFCD0BFF35F8FA5
:102990001B68BFF35F8F00221A6080F3108840BF6E
:1029A000002000217047C046E04E0020F8B5574691
:1029B0004E464546DE46E0B599460CAB1C780DAB5D
:1029C0001B78060090469A460768002C11D1BC7B04
:1029D000002C42D065003B682D19033D59194B78F6
:1029E000BB73002B00D1FB7300238B704B700B70FB
:1029F00004E065003B682D19033D5919B2682A4B64
:102A000094464246E3181B0163441A604A465A60E2
:102A10000A9A9A600B9ADA6000238B704B700B70E5
:102A20007B7B9B46002B2BD022005946B8687B68E5
:102A300098473A68002816D05B4658465B005B44CE
:102A40005519033BA870D118D35C002B00D06B70D4
:102A50005B460C707B73A34513D0F0BCBB46B246FB
:102A6000A946A046F8BD5B465B005B44033BD31818
:102A70009C705119525D002A00D05A705B460B7051
:102A80007C7342464B46307D00F0C0FB051E06D0ED
:102A90005346002B03D12100306800F0DBFD0E9B74
:102AA000002BDAD01D70D8E7FFFFFF0FF0B5DE4630
:102AB00057464E4645460023E0B58BB00893674B1A
:102AC0008200D45800239B46099000F015FB6268F1
:102AD00006000F00EFF3108572B61368002BFCD0D0
:102AE000BFF35F8F23689C465B7B9946002B00D128
:102AF00069E0A2685A4B90464B441B0198444346F8
:102B00001A685B6810001900801BB941002900DCBD
:102B100063E0099800F07AFB002300229846002326
:102B20000692079300239A466368BFF35F8F5A4665
:102B30001A6085F310885346002B08D10028C4D1B1
:102B40000BB0F0BCBB46B246A946A046F0BD089B00
:102B5000414618024B461843D047626806000F00F2
:102B6000EFF3108572B61368002BFCD0BFF35F8FB4
:102B7000002F50DB33003B4302D02369002B61D18F
:102B80002368D97B002907D04A00521819688C465F
:102B900049466244033A51709A7B002A01D14A4661
:102BA0009A734A46DA734B46E168013BCA5C0132CC
:102BB000CA545B4623616368BFF35F8F5A461A604D
:102BC00085F3108881E700230022984600230692AF
:102BD0000793002300209A46A6E7002902D1002887
:102BE00000D096E70021604600F0B2FC43461A6828
:102BF0005B680692079343469B689A464346DB68A8
:102C00009846E3684B44013B1B7808931B0203433F
:102C10002361002088E72369002BB1D0069A079B27
:102C2000921BBB41002B15DB5946049101210391F6
:102C30004946029141460191514620000091FFF71B
:102C4000B5FEB6E700F058FA32003B0012184B41CF
:102C5000002BE9DA0122034B5242E5E7BC4E00208B
:102C6000FFFFFF0FFFFFFF7F10B5144C6368002BC1
:102C700004D00A211248FFF729FE10BD2300114A93
:102C80001021206800F07EFB032000F029FA0320C9
:102C900000F026FB03200C4900F072FAFFF74CFB12
:102CA0000A4B9C4603232375D0231B061B686044F4
:102CB0006375074B80006060DC60DAE7081F002066
:102CC000E04E002049290010AD2A001040000034D9
:102CD000BC4E002000487047081F0020F0B54E464B
:102CE0004546DE465746E0B585B0019310AB1B78EC
:102CF0000600039300239946984600927268EFF30A
:102D0000108B72B61368002BFCD0BFF35F8F356851
:102D1000AC7B002C3DD067002B683F19033FDB19CB
:102D20005A78AA73002A00D1EA73B168474A8C46E0
:102D300000980199A21812016244106051600E9926
:102D400091600F99D16042469A705A701A706B7BED
:102D50009A46002B67D022001900A8686B68984734
:102D60002A68002852D0534650465B005344D71976
:102D7000033BB870D118D35C002B00D07B70534656
:102D80000C706B7354454FD0F3681B19013B1878D6
:102D900000E000207368BFF35F8F42461A608BF338
:102DA0001088002C4FD04B46002B08D10002204346
:102DB00005B0F0BCBB46B246A946A046F0BD039B99
:102DC000002B3ED00E9B00200F9998470300040073
:102DD0000D000B4335D000290ADA009A019B121B23
:102DE000AB4100920193002B0ADB039B994685E7D8
:102DF00000F082F924184D4100940195002DF4DA79
:102E00000123134C5B4200930194EEE753465B00B1
:102E10005344033BD3189C70D119D25D002A00D0D3
:102E20005A7053460B706C73307D009A019B00F012
:102E3000EDF981460028A7D02100306800F00AFC97
:102E4000A2E70020B4E701204042B1E7FFFFFF0FF7
:102E5000FFFFFF7F407D7047F0B504000D000626A0
:102E60007642F717C64636196F4100B584B08F42D7
:102E700014D811D000F040F932003B00121A8B41F7
:102E8000002B15DC002B3ED02000290000F068F953
:102E900004B080BCB846F0BD8642EBD900260027BE
:102EA00000F02AF932003B00121A8B41002BE9DDB9
:102EB000002302930193154B3200009314483B000A
:102EC000FFF70CFF0028DFDB00239846BC46114AC1
:102ED000114F7B6A9C4504D8B96A8E42D4D99C456F
:102EE000D2D11168EFF3108072B60B68002BFCD0C2
:102EF000BFF35F8F1368BFF35F8F4146196080F3A4
:102F0000108820BFE5E7002ABED0D1E77D29001058
:102F1000081F0020E04E00200040054070B506006C
:102F200000F0EAF8FA2204000D000023300000212E
:102F3000920003F06BF900196941002902DBFFF7E9
:102F40008BFF70BD012001494042F8E7FFFFFF7F82
:102F5000F0B5EFF30583CE46474680B505000C007B
:102F600085B0002B12D02C4A0020536A9C4203D813
:102F7000926A0130AA4204D305B0C0BCB946B0463B
:102F8000F0BDE01A421E9041C0B2F5E7234E029315
:102F90000193234B0200009330000B00FFF79EFECD
:102FA000031EE0DD20BF7168EFF3108772B60A6878
:102FB000002AFCD0BFF35F8FDAB294463068427BC0
:102FC00062451DD0FF221A40510089460168914494
:102FD00088464946414403398978002913D0F1686D
:102FE0001B0A88464244013A1278DBB29A420FD05B
:102FF0007368BFF35F8F00221A6087F31088B2E70F
:10300000FF221A40EBE732699342F1D13161EFE7D9
:10301000614600F01FFBEBE700400540081F002061
:103020007D290010F0B5EFF30582D6464F4646469F
:103030001000C0B51038EFF3108872B6214C236829
:10304000002BFCD0BFF35F8F0123190081401E4D80
:103050001F006963AA461D4D29601D4D2E78AC46A0
:103060003500C5402F402B4209D1BFF35F8F276049
:1030700088F31088E0BCBA46B146A846F0BD534676
:10308000144D5F6A83005D59AF420ED3124A8E43DE
:103090009B5862461670BFF35F8F0022226088F350
:1030A0001088002BE6D09847E4E70C4B92009C4632
:1030B000624413681360BFF35F8F0023236088F3BB
:1030C0001088D7E7280100D0004005403C7005403B
:1030D000164F0020EC4E0020E4480020D03F054071
:1030E00010B50100024A0348FFF7A8F810BDC0461A
:1030F00058270410114F0020034B596A0A00986AA0
:10310000596A8A42FAD170470040054070B5040000
:103110000D00124A536A1900966A536A8B42FAD11B
:103120003000190024184D41AB4211D80ED02B00AD
:103130000A494A6A9A42FCD307D1084A02E0516A16
:10314000994202D1916AA142F9D370BDA642EED94B
:10315000012301246442E5175B42E9E70040054092
:10316000064A536A9942FCD807D1044B02E05A6AD6
:10317000914202D19A6A8242F9D3704700400540D9
:1031800070B504000D00EFF3108672B61A4A13688A
:10319000002BFCD0BFF35F8F002D1BD02000FFF76A
:1031A00017F9164981420AD02000FFF719F90121C9
:1031B0002000FFF7DDF80123A340114A1360114BF3
:1031C000A400E550BFF35F8F00220B4B1A6086F31B
:1031D000108870BD0B4BA200D5500122A2400A49B5
:1031E00020000B7893430B700449FFF717FA002176
:1031F0002000FFF7BDF8E5E7280100D025300010DA
:1032000038600540E4480020164F0020F0B54F46D6
:10321000D6464646C0B507002C4C616A0D00A66A2A
:10322000616AA942FAD18B4208D805D00120E0BCDE
:10323000BA46B146A846F0BDB242F7D9EFF3108ABC
:1032400072B6234801680029FCD0BFF35F8F0125C7
:10325000BD4020491D4C8846097889462943C9B29A
:103260008C46414660460870391D1B4889006563DD
:103270000A51B9000B50216A0020294219D0616A15
:103280000800A66A616A8142FAD18B4219D801D13D
:10329000B24216D8CC4516D00C4B1F201D625D6380
:1032A00001230740BB400D4A1E38136043464A467F
:1032B0001A70BFF35F8F0022054B1A608AF31088E3
:1032C000B5E70020F5E70120F3E7C04600400540E0
:1032D000280100D0164F0020EC4E002080E200E0D4
:1032E000EFF3108C72B60A490B68002BFCD0BFF3C9
:1032F0005F8F01238340074A0748136202789A438D
:103300000270BFF35F8F00230B608CF3108870474F
:10331000280100D000400540164F002070B5050080
:1033200014001600002915D00C00002A12D0806865
:103330006B689847296800280ED073009B196200BB
:10334000033B1219CB18033A9C7088188A5C002A38
:1033500015D10670200070BD63001B197200033B7D
:103360009219CB18033A9E7088188A5C002A02D101
:1033700004703400EEE75A7004703400EAE75A70C3
:103380000670E7E730B583600023CCB243730133A6
:10339000047342608373C4730D000068012C06D966
:1033A000421C0133DBB2137003329C42F9D1FF217E
:1033B00029404B005918002340180338437030BD92
:1033C000F8B5CE46474606000C0080B5002907D068
:1033D0004D0003686D18033D5A195778002F04D12A
:1033E0002000C0BCB946B046F8BD7900C919033900
:1033F0008846434459788946002159705170736852
:103400003A002100806898473368002814D042466B
:103410009A18947059195B5D002B00D053700F708F
:10342000270049463000FFF7CBFF3900020030008B
:10343000FFF774FF0400D3E7424641465D19AF70C1
:103440009A185B5C002B00D06B701470E9E7C046E3
:10345000F0B557464546DE464E46E0B50D006B00DA
:1034600001685B19DF1E0400C85D83B00192CA19B0
:10347000002850D043001B18033BCB185E78B4469D
:10348000002E1AD1019E002E42D0E67B002E04D0E1
:1034900073009B19CB18033B5D70A37B002B00D1FD
:1034A000A573E57300282FD10023537003B0F0BC3F
:1034B000BB46B246A946A046F0BD72006244033A3C
:1034C00089184A78904600224A7091465A70010045
:1034D00032002000FFF722FF43468246002B07D030
:1034E0005B0021684344033BCB185A78002A16D16D
:1034F000424651462000FFF711FF2168019BCA197F
:10350000002BC2D10028CFD043001B18033BCB189F
:1035100000219970C8E7019B002BB6D1C4E7500089
:103520008018033809184878834648464870587010
:1035300041462000FFF7F2FE594680462000FFF783
:103540003FFF414602002000FFF7E8FE8046CFE73C
:10355000F0B557464546DE464E46E0B583B001918C
:10356000457B04006B0000685B19DF1EC15DC2195A
:10357000002952D04B005B18033BC3185E78B44659
:10358000002E1CD1019E002E44D0E67B002E04D0DC
:1035900073009B19C318033B5D70A37B002B00D104
:1035A000A573E573002931D100232800537061739E
:1035B00003B0F0BCBB46B246A946A046F0BD7200BF
:1035C0006244033A80184278904600224270914645
:1035D0005A7020003200FFF7A1FE43468246002BBE
:1035E00007D05B0021684344033BCB185A78002A7C
:1035F00017D1424651462000FFF790FE019B010083
:103600002068C219002BC0D10029CDD04B005B1817
:10361000033BC31800209870C6E7019B002BB4D170
:10362000C2E7500080180338091848788346484696
:103630004870587041462000FFF770FE594680469A
:103640002000FFF7BDFE414602002000FFF766FEA6
:103650008046CEE770B5040000292CD0437B8B4216
:103660002ED0056848004018033828188278002AB0
:1036700021D053009B18033BEA5CEE188A4202D12A
:103680001BE0002A08D053009B18033BEB185A7824
:103690008A42F6D142785A70002301228370437027
:1036A0002000FFF7D5FE617B02002000FFF736FE09
:1036B0006073012000E0002070BD43783370EBE7B9
:1036C00001221900FFF7C4FE60730120F4E7C04631
:1036D00030B50C2083B000F0B3F9FEF7A7FD002849
:1036E0000ED0994B994A1A605A609A60DA601A6152
:1036F0005A619A61DA611A62954A5A6203B030BD22
:10370000944CA06700F0F0F90122934B1A60636CAF
:10371000012BFCD10322914B1A608E4A936B012B33
:10372000FCD1013301218E4A8E480093043300F00E
:1037300037F905238C4A009301218C4800F030F9B9
:103740008B4B5A68FF2A02D8802252005A6080228E
:103750007D4C824B21691201854D1A60002907D0EA
:10376000606901F01DFE431C5800C0180338FDD2EB
:10377000E0217F4B02201A681140802252012A4327
:1037800011601968484003210140116004219A68C2
:103790001142FCD08022802192012A43090111604C
:1037A000802252005A60734B2361734B5968FF2982
:1037B00000D85A600321684A6F4B116002399A6839
:1037C0001142FCD0E0201A681040802252011A43B6
:1037D00010601868484003210140022011606649CA
:1037E0008A681042FCD08022920113438022120189
:1037F0001A608022614B52004A606361604B5968D5
:10380000FF2900D85A6080225E4BE16912015C4DAD
:103810001A60002907D0606901F0C2FD431C5800FE
:10382000C0180338FDD2E02255490B681A408023A6
:103830005B012B431A60802380229B012B431201E2
:103840001A608022414B52004A60E3614E4B596836
:10385000FF2900D85A6080224C4B216A12014A4D40
:103860001A60002907D0606901F09AFD431C5800D6
:10387000C0180338FDD2E02243490B681A40802368
:103880005B012B431A60802380229B012B43120192
:103890001A60802380225B004B602C4BD202236293
:1038A0003B4B5968914200D25A608022394B616A81
:1038B0001201374D1A60002907D0606901F070FDD0
:1038C000431C5800C0180338FDD2E02230490B6871
:1038D0001A4080235B012B431A60802380229B01C6
:1038E0002B4312011A608023DB024B60184B63628A
:1038F000294B5A68FF2A02D8802252005A6080223F
:10390000264BA1691201244D1A60002907D0606975
:1039100001F046FD431C5800C0180338FDD2E022D8
:103920001D490B681A4080235B012B431A608023DA
:1039300080229B012B4312011A6080235B004B60A5
:103940000E4BA361DAE6C046084A0020006CDC0298
:103950001BB70000008000403CB0004030B0004089
:10396000002F685900800240008C864700C002404A
:1039700030800040001BB7003C8000404059730776
:103980005480004054B000406080004060B000406F
:103990006C8000406CB000404880004048B000405F
:1039A000F8B5040021481D0017000E0001F0F8FCD6
:1039B0000100380001F0F4FC069B29041B031943A5
:1039C0002368002B20DB1A4B1A4DE21853425A4150
:1039D00080235B019C461203174B62441A60174B0D
:1039E0001A601700AB689F43FBD1C022231D9201D0
:1039F0001A4321232660A06013602368002BFCDAA1
:103A00000823E1601360F8BD3F2322681340B342EE
:103A1000D9D1A3681B051B0D8342D4D1EE22E368E4
:103A2000D20213408B42CED1EDE7C046001BB70057
:103A30000040FDBF00C0004000E0004000F000403A
:103A40008023024A9B000343D362704700800540F5
:103A500010B5140080221B4BD2051A6000281AD022
:103A60000123194A1843194BDA61194A42401A6274
:103A7000596298628022134BD2051A601549164A82
:103A80001160E022D2041A60002C07D18022134B6F
:103A900012061A6010BD0D4BD861EBE763011B1BCA
:103AA0009A008023121912015B049A4200D30C4A37
:103AB0000C4B1A60054B5A608022084BD2051A60E5
:103AC000E8E7C04600B00540D3C007B0008005401D
:103AD0002D3FF84FFCFF01000820014000A00540E9
:103AE000FFFFFF00AC4E0020AA23064A1B01136013
:103AF0002F230549D360054B19605368002BFCDA6E
:103B00007047C0460040024000B0FA00006002402A
:103B10002C4B2D4A70B51A602C4A2D4B2D491A603A
:103B200014008B689C43FBD12B4D2C4EB54208D220
:103B3000013E761BB60808CD984723000134B342F6
:103B4000F9D1FFF7C5FD264A214B1A60214A936837
:103B5000DB43DB01DD09002BF9D14022214B224C54
:103B6000224E9A675A671A67DA66B44208D2236807
:103B70002000002B20D00834FEF7BEFEB442F6D35E
:103B80001B4E1C4CC022A168300002F02BFCA6602A
:103B9000FEF7C4FBFEF774FEFFF766F8164C174EEF
:103BA000B44208D2013E361BB60808CC98472B0019
:103BB00001359E42F9D170BD0834FEF78FFEB44244
:103BC000D5D3DDE700E00040BFCDFBFEFE7F3C002B
:103BD00000F0004000C00040402A0020502A002091
:103BE000FFFFFF0100F00140382A0020402A00209A
:103BF0000000002000ED00E0502A0020742A002080
:103C000000BEFDE7094A03001068002805D00849F6
:103C1000C3188B4207D81360704706480449C3187D
:103C200010608B42F7D901204042F5E7A44A0020FA
:103C300000000420184F002000207047012040425F
:103C40007047C04610B5FFF7DBFFC04610B50C004B
:103C500082B01900002A0AD0064B0192009302009C
:103C60002300054801F002FB0120FFF7C9FF034BC9
:103C70001A00F2E77C2704108C2704108C5D0410D6
:103C80000FB400B5084883B002F0F2FC049B002B8F
:103C900007D005A91800019101F008FB034802F0C4
:103CA000E7FC0120FFF7ACFFBC270410CC27041071
:103CB00010B50148FFF7E4FFD02704109A4200D264
:103CC000885470477047C046F8B557464E4645463B
:103CD000DE46E0B599460A9B07009A460D9B88464A
:103CE000934615000B9E9B0710D10C9B9E420DD254
:103CF0009D1B14000E005D4422004B460134310030
:103D00002020B847A542F7D1B0460B9E002E27D001
:103D1000444675195346AA1B013E985D21004B4647
:103D2000B847002EF6D123002C0098460D9B9B0728
:103D30000FD55B46E51A0C9BAB420AD9464698461E
:103D400022004B46310020200135B8470134A845F8
:103D5000F6D82000F0BCBB46B246A946A046F8BD46
:103D60002C00E3E7F0B54F464646D646C0B584B0D2
:103D700098460EAB1B78129F994694460D9C109B5B
:103D8000119EBA0725D4002E4BD19C4200D3BFE030
:103D900001223A4092461F2C00D9B8E00C9A551ED9
:103DA000302201E0202C03D001342A55A342F9D857
:103DB0005246002A0DD0A6420BD9202C44D00C9A92
:103DC000551E302201E0202C3ED001342A55B44249
:103DD000F9D1FA064DD57A053FD4002C39D10F9B85
:103DE000102B00D179E00F9B022B00D18AE0302309
:103DF0000C9A012413704B46002B3FD02D230C9AB4
:103E0000135501340C9B6246009303974346029678
:103E10000194FFF759FF04B0E0BCBA46B146A8468A
:103E2000F0BD012215003D40AA463A422FD04A4635
:103E3000002A02D10C323A4200D0013E9C42BAD252
:103E40001F2CABD9202E27D92024FA06DAD57A05E3
:103E500003D4A3422DD0A6422BD00F9B102B32D0DF
:103E6000022B20D0202CCDD030220C9B1B191A7095
:103E70000134202CC6D04B46002BBFD17B070DD47C
:103E80003B07BFD520230C9A13550134BAE79C4257
:103E90009FD21F2C00D881E720249AE72B230C9A6D
:103EA00013550134AEE7202CACD00C9B1B19013408
:103EB0003AE0631E012C92D00F9A102A2AD0022ACF
:103EC0002FD01C00D0E7BB060ED4202C9AD00C9B20
:103ED0001A19013478231370C4E7BB060DD4782374
:103EE0000C9A01241370BFE7202C00D18AE75822D6
:103EF0000C9B1B191A700134B4E758230C9A012447
:103F00001370B1E70C9A603301241370ACE72024DE
:103F100000265EE7023CBA06E9D40C9A12191C008E
:103F2000D8E70C9A9246534462221A709AE7C04628
:103F300010B5002800D110BD02F04EFBFBE7C046D3
:103F4000F0B5DE4657464E464546E0B59BB09B462B
:103F5000249B89469846259B0B900C9240464246EE
:103F600019009A4601F0EDFC002800D0D8E00122AB
:103F700040465146774B524201F0DEFC002800D00B
:103F8000CEE0012240465146734B524201F0BEFC46
:103F9000002800D0C4E0002200234046514601F032
:103FA000B5FC002800D0B9E1424653460A92099375
:103FB0008023289ADB001A400E92289A1A4201D1D7
:103FC000062326930A9A099B1600134300D0C7E0E4
:103FD000289B002500261B0500D49BE100230D93A0
:103FE000269A0D9B9A4200DC9FE1D01A431E26932D
:103FF0008023289ADB001A430023002728920D9380
:10400000279B0024BB4200D9DC1B0223289A1A40BC
:104010000E92289A134203D07B427B415B421C40A4
:104020000D9B002B07D00A9809992A00330001F054
:1040300004FC0A900991002200234046514601F0F9
:1040400065FC002805D0802000068446099961445B
:104050000991289A414B0B9D13400493269B0A9A81
:104060000293099B03940092019349465B46280002
:104070000C9A00F08BF90400002F62D0289B2200DC
:1040800098061F23C0179843631C984649465B4611
:104090006530A8470D9B0025DA179C18DB0F9A4660
:1040A0005440013F01E0202D13D00AAA94461F235B
:1040B000200063440A2101355E1901F071F93031A5
:1040C000317020000A2101F06BF926000400092E4E
:1040D000E9D805230693002304930A330393534638
:1040E00005970B9F029312AB009342465B464946ED
:1040F00038000195FFF736FE0E9B0400002B20D000
:104100000C9BC51A279BAB421BD91E0022005B46A5
:10411000494620200135B8470134AE42F6D810E0B8
:10412000289B42460493279B49460393269B0B9862
:1041300002935346009201935B460C9A00F026F9D5
:10414000040020001BB0F0BCBB46B246A946A04606
:10415000F0BDC046FFFFEF7FFFFFEFFFFFF7FFFF60
:10416000734B099F9C467800400D604401F0FCFBB6
:10417000704A714B01F07FFB704A714B01F054FBA8
:104180003B03704A1B0B1A4304000D003000110062
:104190006D4B002201F03FFB6C4A6D4B01F06BFB55
:1041A00002000B002000290001F03EFB01F0F4FBAF
:1041B0000D9001F0D9FB674A674B04000D0001F038
:1041C0005AFB0022654B01F02FFB01F0E5FB644A2E
:1041D0000600644B2000290001F04DFB0400300074
:1041E0000D000F9601F0C0FB5F4A604B01F043FBEE
:1041F00002000B002000290001F00DFB02000B0063
:1042000006000F0001F037FB320004000D003B00F8
:104210003000390001F008FB002210901191544B3E
:104220002000290001F009FB0022524B01F0FCFAAA
:1042300002000B002000290001F0FFFA00224E4B83
:1042400001F0F2FA02000B002000290001F0F5FA5B
:104250000D008021040032003B000020C90501F060
:10426000DAFA02000B002000290001F0DDFA02005A
:104270000B001098119901F0E0FA0022314B01F087
:10428000D3FA3E4B0F9C9C4664440022230501F068
:10429000F2FA05000E0002000B000A98099901F0DD
:1042A00035FB00280AD00D9B2800013B31000D93FF
:1042B0000022304B01F0C1FA05000E00C6270D990F
:1042C0002B0063318F42BF4128997F420437090593
:1042D00000D495E6334300D182E6099C284A2100A8
:1042E000284B0A9801F020FB002808D0002221006A
:1042F000254B0A9801F00AFB002800D070E6269BA7
:10430000002B00D17CE60E9B5A1E9341269AD31AAD
:10431000269375E6002304270D9371E643460A931E
:1043200080231B065344099342E6002326935FE64D
:1043300001FCFFFFFB799F501344D33FB3C8608B50
:10434000288AC63F0000F03F0000F83F61436F63DA
:10435000A787D23F71A379094F930A400000E03F3D
:104360001655B5BBB16B0240EF39FAFE422EE63F5F
:1043700000002C400000244000001840FF03000013
:104380002D431CEBE2361A3F80842E41F0B54E4699
:10439000DE4657464546E0B597B09946209E219F98
:1043A000229B8346984607910C923B0032003000D6
:1043B000390001F0C6FA002800D0A9E1012230003E
:1043C0003900CA4B524201F0A1FA002800D0E1E0C6
:1043D000012230003900C64B524201F0ADFA0028EC
:1043E00000D0B7E0002230003900C24B01F0A4FA3F
:1043F000002800D099E0002230003900BE4B01F0C7
:1044000085FA002800D090E0002200233000390017
:1044100001F07CFA002800D0B1E000230D93249B2A
:104420005B0501D40623984608AB9C46172200245E
:1044300030234146624404E0013413550139202CF5
:1044400001D00929F8D888463000390001F0A4FAD3
:104450004346DA00A94B05009B181A685B6808926E
:10446000099301F081FA02000B003000390001F0DD
:10447000D2F9089A099B01F0FEF90A900B9101F01C
:10448000AFFA824601F06CFA02000B000A980B9911
:1044900001F0C1F900229A4B0A900B9101F04CFAFD
:1044A000002800D1C0E001239C46E244504601F0C0
:1044B00057FA02000B000898099901F02DFA00281C
:1044C00002D000239A4601354346002B6AD008AB40
:1044D00017269C4608956644554614E001235B4226
:1044E00043440A2128009A4600F05AFF0134303133
:1044F0003719397028000A2100F052FF092D00D821
:10450000D0E0D0460500202CE8D10EAB984603231E
:10451000249A1340012B00D196E02023249A019382
:104520000392239A434602921EE0249B584604932A
:10453000239B00960197039343460C9A0293079995
:104540004B46FFF7FDFC17B0F0BCBB46B246A94690
:10455000A046F0BD249B5B070ED40322694B24992F
:104560000192039123990291009358464B460C9A6D
:104570000799FFF7A9FBE6E70422634BEFE73B004F
:1045800032000020002101F046F9012306000F004F
:104590000D9344E7249B0393239B029304230193ED
:1045A0005A4BE1E7280001F0DFF902000B00300070
:1045B000390001F030F9524B002206000F0001F0E3
:1045C000A5F90EAB984600280AD100223000390028
:1045D0004B4B01F0B1F9002802D1EB0700D50135B2
:1045E000202C94D008AA94461723280063440A215B
:1045F00001341E1900F0ACFE3031280031700A2160
:1046000000F0A6FE051EEBD10323249A1340012BD4
:104610001BD0202C00D180E70D9B002B35D02D2204
:104620004146631C0A5579E700220A980B99344BDE
:1046300001F06CF9002800D046E75346002B51D119
:1046400001239C46E2443FE72024239B002BE0D03B
:104650000D9B002B03D1249A0C33134202D0239BD1
:10466000013B2393239BA342D3D908AB9C4617223B
:1046700030236244202C00D14FE723990134135595
:104680008C42C6D0202CF8D147E7249B5B0724D46A
:10469000249A2300120700D440E720224146013328
:1046A0000A553BE75746089D202C00D12DE72200F4
:1046B00030214046002F09D00132B154202A00D1C8
:1046C00023E7D3431B191B18002BF5D10EAB9846DB
:1046D0002E234146541C8B5482E72B224146631CF7
:1046E0000A551BE7DB0700D4EEE6A9E7FFFFEFFF63
:1046F000FFFFEF7F65CDCD4165CDCDC1D829041039
:104700000000E03FDC270410E0270410EC27041031
:10471000249B0393239B029303230193004B23E7E2
:10472000E8270410F0B5DE464E4657464546E0B54C
:104730009FB01C00289B91460993C94AC94B8B46E0
:1047400008901A60002900D118E2002320789A46C8
:10475000002800D11AE226001D005C460AE02A006B
:104760006F1C4B46089D2100A8473D00013630785C
:10477000002870D02528F2D110239B46083B9A468A
:10478000043B9846023B00219C46721C10781600A0
:104790000300203BDBB2102B03D8B34F9B00FB5828
:1047A0009F460300303B092B32D900230A932A2865
:1047B00068D0002398462E283ED00300683BDBB229
:1047C000122B1CD8A94A9B00D3589F4601230132C3
:1047D0001943DBE7634601321943D7E74346013209
:1047E0001943D3E75B4601321943CFE75346013201
:1047F0001943CBE780235B0070781943013603002F
:10480000253BDBB2532BAAD8994A9B00D3589F462D
:1048100000270300B800C01901364000C0183378E3
:1048200030381A00303A0700092AF3D90A901800E4
:10483000002398462E28C0D180237078DB001943CE
:104840000300303B721C092B00D8A1E12A2800D1BB
:10485000B2E11600B1E7A346AA462C00D14503D821
:1048600001235B424B449A464B4652465946002030
:10487000089DA84720001FB0F0BCBB46B246A94621
:10488000A046F0BD099B40CB0A96002E03DB507872
:104890000993561C8DE72838014370420A9009930A
:1048A0005078561C85E7782800D1DFE1582800D1E0
:1048B0004CE26F2800D14FE3622801D100F030FCB8
:1048C00010230A009A430B92692801D000F0A9FC3A
:1048D0000A230C934B0500D5D0E10B9A80231100DD
:1048E0009B0019408B461A4200D0A1E280231100A0
:1048F0005B0019408A461A4200D0B6E313005B06FB
:1049000000D5EDE2130009991B0601D400F076FCF6
:1049100008C91BB2D8171A18424092B2099193469F
:10492000DA0F1292002B09D1802310220B99DB00A1
:104930000B4091430B91002B00D0E4E20B9A6123D2
:10494000920600D541230EA91F228C46DBB2624499
:104950000A3B5F461395A34655460C9CB2460D9301
:1049600016000AE03033DBB201357355A74200D29E
:10497000EDE2202D00D1EAE207002100380000F02E
:104980000FFDCBB20929EDD90D9A94466344DBB2F1
:10499000EAE780239B007078194301362FE770788F
:1049A000682800D1CDE180230136194327E77078CC
:1049B0006C2800D1BFE180235B00194301361EE75C
:1049C000462800D19BE10722099B049107339343BA
:1049D0000A9A19000392424602920CC90898009262
:1049E000019309912A004B462100FFF7CFFC0136C5
:1049F0000500BCE62A006F1C4B46089D21002520BF
:104A0000A84701363D00B2E68B0700D4ADE1099B13
:104A10002A009A466B1C9846534601CB21009A46C1
:104A2000089F4B46C0B2B8470A9B9C466544012B81
:104A300000D886E2089B4746B04626004C46994679
:104A40003A002300013731002020C847AF42F7D198
:104A5000A1465346340046460993013687E6C046D0
:104A600025470010A84E0020F42704103828041011
:104A700084280410099B04CB9B4643460992002BD3
:104A800000D1C6E013789C46002B00D1BDE343461D
:104A9000013B099A0133D0180A9F130001E08342B9
:104AA00003D05A780133002AF9D1099A0A979B1A40
:104AB0000B9380230A00DB001A400C92194204D0A9
:104AC0000B9B434501D943460B9302231A000A402E
:104AD0000D920B4200D187E16046002800D168E1C9
:104AE0000C9B002B00D10DE1A844C246099B574600
:104AF0005B1B9846089BB2462A0026004C46994606
:104B000009E023003100551CC8474346585D002882
:104B100000D126E12A009742F3D1A1463D0034009E
:104B200056460D9B002B00D043E15B4601360993AE
:104B30001DE6099B1A0008CA9246002B48D0212284
:104B400011438B460EA884461F216144099500221B
:104B50000F27A4460D0002E0202A0CD00B003C00D9
:104B60001C4020003730092C00D807380132A854E7
:104B700019090F2BF0D86446099D32E0DC4B2078F0
:104B8000089300239A46002800D0E4E5002465E657
:104B9000434606000A9F9800C01801324000801961
:104BA0001678030030003038303B0928F3D9300044
:104BB000984616000A9700E6099B023604CB9046F9
:104BC000D2434046D2171040804609933078F4E52E
:104BD00010220800904311321043834600224905F9
:104BE000B0D55B46069308230593434604931023F0
:104BF00003930023029316AB019200932A004B46C5
:104C000021000898FFF7AEF85346050001360993D6
:104C1000ADE513789C46002B00D1F7E202235B42FE
:104C200037E7202302009A43472A04D180231B013F
:104C3000194302239843452801D120231943072211
:104C4000099B0491073393430A9A19000392424641
:104C500002920CC908980092019309912A004B46D0
:104C60002100FFF76DF90136050080E510230C9354
:104C70000C230A009A430B924B0503D501230B9A90
:104C80009A430B92692800D127E6642800D124E6D4
:104C90000B9A802311009B0019408B461A4200D0CA
:104CA00066E1802311005B0019408A461A4200D059
:104CB00039E213005B0600D53CE113001B0600D46B
:104CC000A6E2099B04CB1204120C934609935B469F
:104CD000002B00D09AE10B9A1033110099430B91ED
:104CE000520500D492E100239A460B9B06930A9B3F
:104CF0000593434604930C9B039300230CE120236C
:104D0000194360E6099B0A9A5B1B98464B469146FD
:104D10001F00B2462600089C2A003B003100A04735
:104D200043460135585D0028F6D14A463400B9465D
:104D300056460A92F5E6C0239B00B0781943023626
:104D40005DE5C023B0781943023658E50C230A000C
:104D50009A4314331A43103B0B920C934B058DD49A
:104D600096E7A14634005646DBE60A9A012A00D8A7
:104D700053E26B1E9F18089BB04626004C4699468E
:104D80002A002300013531002020C847BD42F7D159
:104D9000A14634004646099B3A0001CB21009846C3
:104DA0007D1C4B46089FC0B2B84743460136099365
:104DB000DDE40B9B0A9AA8469A4200D8B5E69446D1
:104DC0006544ED1A089B4746B04626004C46994676
:104DD0003A002300013731002020C847AF42F7D105
:104DE000A14634004646A0E60B9A0A99531C91420C
:104DF00000D814E24B199B1A1F00089BB2462600EC
:104E00004C4699462A002300013531002020C8472E
:104E1000BD42F7D10A9BA14601330B93099B340095
:104E20001B7856469C466046002800D058E67CE633
:104E30000722099B07339343013294469C44624600
:104E40005F6809921A68FB171093119310981199D3
:104E5000030053400E930B007B400F9394460E9A31
:104E60000F9B121A8B410E920F93FB0F6246129307
:104E700000233A439B463DD00B9A6123920600D50E
:104E800041230022DBB20EA90A3B8C4692460D93C9
:104E900043461F3262441395159655460E9E0F9F4A
:104EA000A24690460C9C14930CE03032D2B243469A
:104EB00001355A55BB4500D18AE1202D00D18AE148
:104EC00006000F00220000233000390000F0A6FA8F
:104ED000D2B2092AE9D90D9B9C466244D2B2E6E7D8
:104EE000FF23099904C913401A00099117E5C04628
:104EF000C53C00100B9A1033110099430B915205D9
:104F0000BAD500239A460B9B06930A9B059343460A
:104F100004930C9B0393129B02935346019316AB8D
:104F20002A00009321004B460898FEF71BFF01362C
:104F300005001CE4FF22099B02CB11408B4609931C
:104F4000C5E65346454609930136FFF710FC564621
:104F50005C46AA46139DD6E708230C930B910B9948
:104F6000642800D084E60B9B5B0500D586E6B4E49C
:104F70000722099B07339343013294469C446246BF
:104F800009921A685B6810009B4613005A46134347
:104F900007D10B9A1033110099430B91520500D59C
:104FA000A1E60B9A6123920600D541230022DBB2D1
:104FB0000EA90A3B8C4692460D9343461F3262442B
:104FC0005F461295A34655460400B24690460C9E95
:104FD00013930DE03032D2B2434601355A550023C7
:104FE000BB4200D100E1202D00D100E104000F0000
:104FF000320000232000390000F010FAD2B2092A52
:10500000E8D90D9B9C466244D2B2E5E70B9A612336
:10501000920600D54123DBB20EA90A3B1F228C4623
:105020000D93230062445C461295170055469B463B
:10503000B2460C9E08E03033DBB201357B55B442FA
:105040000ED3202D0CD004003100200000F0A8F970
:10505000CBB20929EFD90D9A94466344DBB2ECE751
:1050600056465C46AA46129D3FE6099B1A0008CAAE
:10507000D91713925A184A409246DA0F1292002B0F
:1050800008D1802310220B99DB000B4091430B9138
:10509000002B2BD10B9A6123920600D541230EAA37
:1050A0001F279446DBB20A3B0D9567445D46099382
:1050B000A3465446B2460C9E08E03033DBB20135BD
:1050C0007B55B4420ED3202D0CD0040031002000BB
:1050D00000F066F9CBB20929EFD9099A94466344E6
:1050E000DBB2ECE756465C46AB460D9D0B9B2A00B7
:1050F00006930A9B21000593434604930C9B089852
:105100000393129B013602935B46019316AB009307
:105110004B46FEF727FE139B05000993FFF727FB7D
:1051200002230C931AE7099B04CB92461293002AA0
:1051300008D1802310220B99DB000B4091430B9187
:10514000002B2BD10B9A6123920600D541230EAA86
:105150001F279446DBB20A3B0D9567445D460993D1
:10516000A3465446B2460C9E08E03033DBB201350C
:105170007B55B4420ED3202D0CD00400310020000A
:1051800000F00EF9CBB20929EFD9099A944663448D
:10519000DBB2ECE756465C46AB460D9D0B9B2A0006
:1051A00006930A9B21000593434604930C9B0898A1
:1051B0000393002302935B46019316AB00934B4687
:1051C000FEF7D0FD129B050009930136FFF7CFFAD9
:1051D000B44200D871E6149B54460E960F97AA4627
:1051E0009846159E139D8EE6A64200D8FBE6139BBB
:1051F00056469846AA465C46129D76E508C9D817D9
:105200001A1842400991FFF78AFB00230B9350E4E0
:10521000099B04CB9346099359E52F00BBE50B93FB
:1052200001E6063B0C939AE60EB4012210B585B058
:1052300007AC08CC01000094524204480394FFF7E5
:1052400071FA05B010BC08BC03B01847BD3C001093
:1052500000B583B0009313000A0001000248FFF775
:1052600061FA03B000BDC046BD3C00100FB410B5DC
:105270000C4984B006AA08CA0C680392002C0BD013
:10528000009201220848524202A9A047012004B01E
:1052900010BC08BC04B01847180001F0E9F9002060
:1052A000F5E7C046A84E0020313F001010B5094A6E
:1052B0000300146884B0002C08D001220091064835
:1052C000524203A9A047012004B010BD01F0D0F95B
:1052D0000020F9E7A84E0020313F001001480421CA
:1052E000014B1847301F00200D530010142310B538
:1052F0000100188804331B88984710BD162310B589
:105300000100188802331B88984710BDF8B547463E
:10531000CE4680B50F1E19D01423994604330400DD
:105320000025012698464B461888434621681B886D
:10533000984701C4431E9841013540420640AF42A0
:10534000F1D13000C0BCB946B046F8BD0126F8E73F
:10535000124A936F9B0815D29066D166002905D03A
:10536000FFE7FFE7FFE7516F106F704704B580213B
:105370000906C2175140002800D0C8433CF044FE43
:10538000002104BDF0B5146E556E576F166FFFF710
:10539000E3FF1466556657671667F0BD000000D03E
:1053A000114A936F9B0813D210665166002905D0ED
:1053B000FFE7FFE7FFE7516F106F704704B5002864
:1053C00001D00020C0433CF01FFE002104BDC046B8
:1053D000F0B5146E556E576F166FFFF7E5FF146644
:1053E000556657671667F0BD000000D094464A4ADC
:1053F000926F9208624601D228E0C046F0B5464E50
:10540000346E756E776F366F00F020F89446424A1E
:1054100014665566576716676246F0BD94463E4A65
:10542000926F9208624601D254E0C046F0B53A4EFF
:10543000346E756E776F366F00F04CF89446364ACE
:1054400014665566576716676246F0BD002B24DB6D
:1054500011D000293EDA00B5C943404200D10131E4
:1054600000F038F8C943404200D10131DB435242D9
:1054700000D1013300BD002AEBD1002801D1002961
:1054800005D00020C90FC90701D1C043410800B5AC
:105490003CF07AFD0022002300BD00B500290ADBA4
:1054A000DB43524200D1013300F014F8C9434042BB
:1054B00000D1013100BDC943404200D10131DB437D
:1054C000524200D1013300F005F8DB43524200D1D3
:1054D000013300BD002923D1002B18D1002A0CD0A4
:1054E000BC460D4F38667A6600210023FFE7FFE7D0
:1054F000FFE77A6F386F67467047002801D007488A
:10550000010000B53CF040FD0022002300BD020078
:105510000B00002000217047000000D0FFFFFFFFBC
:10552000002B00D0BFE0130C28D1002AE7D080B4B4
:10553000114F39667A66FFE7FFE730B4040C7B6FE2
:10554000396F1B0423433B667A66FFE7FFE7FFE7FB
:10555000C04684B27B6F3D6F1B0423433B667A6673
:10556000FFE7FFE7C04600232C042D0C7A6F386F4D
:1055700000196941B0BC7047000000D0F0B59446F6
:105580000025140E01D112020835140F01D11201A9
:105590000435940F01D192000235D40F01D152008D
:1055A0000135D40B0134254F7C66254C3C660E0C2E
:1055B00093B2FFE7FFE7FFE73C6F6643360C7703E4
:1055C000BE467343DF0B5B04C01AB941130C73432F
:1055D000DB18C91ACE086643360CB64493B273433F
:1055E0001F0F1B01C01AB941130C73431F0B1B057E
:1055F000C01AB941860D8F023E436643360C092D11
:1056000024DB520A7243801A7703460A6643360C3B
:1056100016235B1BDE40DF40BF1964466643821BD6
:105620007046043506330100D940A840C01900D3A4
:105630000131A24206D20023F0BD0000000000D0DC
:10564000FFFFFFFF121B0130F3D3F1E709277F1B98
:10565000FE406446A2B27243801A00D20139220C85
:105660007243130C1204821A99410B0070460435E0
:1056700013370100F940A840801900D30131002BF5
:1056800002D1A2420AD2F0BD013000D30131121B77
:10569000FAD2013BF8D1A24200D2F0BD013000D3D2
:1056A0000131121BF7E7F0B51C0C00D080E00CB400
:1056B00000251C0A04D11B02160E334312020835C2
:1056C0001C0B04D11B01160F3343120104359C0B34
:1056D00004D19B00960F334392000235DC0B02D1BC
:1056E00092185B4101351C00971864410134464F04
:1056F0007C66464C3C660E0CFFE7FFE7FFE7C046C2
:105700003C6F6643360C7703BE4697B27743C01BA7
:1057100000D20139C01B00D201399FB27743C91BA7
:10572000C91B170C77437E04FF0B801BB941CE08C1
:105730006643360C0C2D33DBB644120B1F053A437F
:105740001B0B97B27743C01B00D201399FB277433E
:10575000C91B170C77433E043F0C801BB941860DD3
:105760008F023E43664329277F1BFE400C3D774650
:10577000AF40BF1930BCA2B2ABB272437343801AC0
:105780009941220C7243130C1204801A99410200B1
:105790000B000137001BA941F9D2781E0021F0BD92
:1057A0000C277F1BFE4077467F0BAF40FF19E0E7D9
:1057B00000245D1C07D0144F7D663966FFE7FFE7C4
:1057C000FFE7FFE73C6F95B29EB265436643401B1F
:1057D000B141150C1E0C6543664336042F0C3E4345
:1057E0002D04401BB141994204D202000B0020005D
:1057F0000021F0BD01D19042F7D3801A99410134C4
:105800009942F2D3F6E70000000000D0FFFFFFFF4F
:1058100048404140484018B41B4B5B68FC4601932C
:1058200008BD04DFDB5B001018B4174B1B68FC4697
:10583000019308BD00DFE55B00109446134A926FA8
:10584000920809D2624618B40F4BDB68FC460193FC
:1058500008BD0CDF9D5E00100C4AF0B5146E556E4D
:10586000576F166F6246FFF7EEFF084A14665566DB
:1058700057671667F0BD18B4034B9B68FC4601934D
:1058800008BD08DF415D0010A82B0020000000D0FB
:10589000FFB550404240504059404B40594000E015
:1058A000FFB5154F4C00640D03D0BC4204D10C036E
:1058B00014D80020090D09055C00640D03D0BC421A
:1058C00004D11C030AD800221B0D1B0501264B40E6
:1058D00009D44B4003D58B4200D18242FFBD99428F
:1058E000FCD19042FFBD0B43DB1803431343F5D0BB
:1058F000C9434918FFBD0000FF07000000B5FFF7CE
:10590000CFFF01D0002000BD012000BD00B5FFF792
:10591000C7FF804100BDC04600B5FFF7C1FF01D9F8
:10592000002000BD012000BD00B5FFF7B1FF01D987
:10593000002000BD012000BD00B5FFF7A9FF804198
:1059400000BD012040054A00121804D85A00121860
:1059500001D80020704701207047002070470000E8
:105960000021002805D17047C1174840401AFAD0DD
:10597000C90713B5064B1B6898470CBC441CA240D2
:105980001005120B0349091B09051943114310BDEA
:10599000DC4E00201F04000010B54C00620D802377
:1059A000D218DB00D21A5B057E2A10DD9E3A13DA8C
:1059B000CC170903490819435242D140640001340D
:1059C0001532202A05DAD0400843604310BD00207C
:1059D00010BD0846604310BDC80FC018013810BD87
:1059E00018B4044B5B6AFC46019308BD24DF4D608C
:1059F00000100000A82B002018B4044BDB6DFC46FF
:105A0000019308BD5CDF596100100000A82B002045
:105A1000C94211D300B549004908002200F018F826
:105A2000002904D4002240428A41114600BD802151
:105A30000906002000BD000018B4044BDB6EFC46D4
:105A4000019308BD6CDF5B6000100000A82B0020F4
:105A500018B4044B9B6FFC46019308BD78DF776058
:105A600000100000A82B002018B4044BDB6FFC468C
:105A7000019308BD7CDFE56000100000A82B00202A
:105A8000132370B51D78012D15D010DD1C48FFF7CC
:105A900035FC1C4C01008022200000F0A3FC022DEC
:105AA00006D01948FFF722FC184B186070BD154C42
:105AB000174BA364F5E7164B124C23606360A36099
:105AC000E36023616361A361E36123626362A362B4
:105AD000E36223636363A363E36323646364A36494
