:020000041000EA
:1000000000B5324B212058609868022188439860DF
:10001000D860186158612E4B002199600221596106
:100020000121F02299502B49196001219960352056
:1000300000F044F80222904214D00621196600F024
:1000400034F8196E01211966002018661A6600F04E
:100050002CF8196E196E196E052000F02FF8012189
:100060000842F9D1002199601B49196000215960AB
:100070001A491B48016001219960EB211966A021F2
:10008000196600F012F800219960164914480160C1
:100090000121996001BC002800D000471248134993
:1000A000086003C880F30888084703B5996A0420EC
:1000B0000142FBD001200142F8D103BD02B5186610
:1000C0001866FFF7F2FF186E186E02BD00000240BE
:1000D000000000180000070000035F00212200005C
:1000E000F4000018222000A00001001008ED00E03C
:1000F00000000000000000000000000074B24E7A12
:1001000000200420F7010010C3010010C5010010F9
:10011000C1010010C1010010C1010010C101001097
:10012000C1010010C1010010C1010010C701001081
:10013000C1010010C1010010C9010010CB01001065
:10014000CD010010CD010010CD010010CD01001037
:10015000CD010010CD010010CD010010CD01001027
:10016000CD010010CD010010CD010010CD01001017
:10017000CD010010CD010010CD010010CD01001007
:10018000CD010010CD010010CD010010CD010010F7
:10019000CD010010CD010010CD010010CD010010E7
:1001A000CD010010CD010010CD010010CD010010D7
:1001B000CD010010CD010010CD010010CD010010C7
:1001C00000BE00BE00BE00BE00BE00BEEFF3058054
:1001D000103800BEF2EB887178E504109CE504103D
:1001E0003402001090A31AE700201F49086006C8D7
:1001F00081F3088810471D48006800282FD10DA4FE
:100200000ECC002902D000F012F8F9E71849194A7B
:10021000002000E001C19142FCD1174988471749ED
:1002200088471749884700BEFDE701C901C29A42C5
:10023000FBD370479CE50410C0000020FC2A00207E
:10024000D80F05100000042000000420D80F05106E
:10025000001004200010042000000000704709482E
:1002600005F0A8FD0047000008ED00E0000000D008
:10027000002B0020BC4F0020D9450010250A00109B
:100280000D4700105756000006005250ABB36053A4
:100290006037041006005250861C030270370410A9
:1002A000060052505422A29D74370410050052508B
:1002B000DE65F468D80F0510F8B5C0460448054B54
:1002C00010B5834203D0044B002B00D0984710BDDB
:1002D000FC2A0020FC2A00200000000006480749F4
:1002E000091A8B10C90FC91810B5491003D0044B57
:1002F000002B00D0984710BDFC2A0020FC2A0020CB
:100300000000000010B5074C2378002B09D1FFF73F
:10031000D5FF054B002B02D0044800E000BF0123AD
:10032000237010BD302E002000000000702F04103C
:10033000054B10B5002B03D00449054800E000BF71
:10034000FFF7CCFF10BDC04600000000342E002097
:10035000702F041008007047F0B50700083704003C
:100360000E0083B00760002923D0080038F026FA79
:10037000050001900F280DD8012808D13378237289
:100380000021019B22686360D15403B0F0BD0028B6
:10039000F6D008E00022200001A927F0F3FB0700B7
:1003A000019B2060A3602A003100380006F07EFD2A
:1003B000E6E701481CF032F8702F0410F0B55746FC
:1003C000DE464E464546E0B50D00010087B01F00F1
:1003D000109B04AE0093C36804009246103142683B
:1003E00030001CF0EBF83378002B17D12368AD00F8
:1003F0009846534645447B632B68002B69D01B68A5
:100400003B602B681F603800E3680133E36007B08E
:10041000F0BCBB46B246A946A046F0BD73689946FB
:10042000012B69D080239B0599456DD24B469D00D9
:10043000280006F041FD2A000021804606F030FD2C
:1004400018239C46A444634603930023A668A36034
:10045000002E26D09B4608339C46A4446346029354
:1004600005E012682A601B681D60002E19D0350057
:100470004946686B05F0F8FC8B0043441A683668FF
:10048000002AEED1A2682A60029AA5601A602B6841
:10049000002B2FD05B4642469B008B469D50002E82
:1004A000E5D12068039B6168984202D0890006F07C
:1004B00013FD4B466360434649462360504605F0B2
:1004C000D3FC0D005346AD0045447B632B68002BE5
:1004D00095D1A3683B60A7603B68002B06D0586BA2
:1004E000616805F0C1FC43468900CF502300083302
:1004F0002B6088E78B46B8E70023A3611833984642
:10050000A04443460393A0E71BF068FFF0B5DE4626
:1005100057464E464546E0B583B00190002800D1CD
:1005200000E1019BDB689946002B00D1E0E04B46DF
:10053000DB689A46002B00D1C1E05346DB689B463E
:10054000002B00D18AE05B46DE68002E6DD0F56896
:10055000002D52D0EB689846002B3ED04346DC6815
:10056000002C29D0E768002F16D0F868FFF7CEFFDF
:10057000BB68386900933B001833984203D0BA69CE
:10058000511C06F0A9FC2821380006F0A5FC009BB0
:10059000002B01D0009FE8E7230020691833A768EB
:1005A00098426ED0A369591C06F096FC28212000C1
:1005B00006F092FC002F6AD1434618699C681833F4
:1005C00098426ED043469B69591C06F085FC282151
:1005D000404606F081FC002C69D12B0028691833B5
:1005E000AC68984255D0AB69591C06F075FC2821BF
:1005F000280006F071FC002C51D13300306918330B
:10060000B46898420BD0B369591C06F065FC2821E8
:10061000300006F061FC002C07D0260097E7282167
:10062000300006F059FC002CF7D15B4618699C6835
:10063000183398420CD05B469B69591C06F04CFC61
:100640002821584606F048FC002C07D0A3467AE73C
:100650002821584606F040FC002CF7D15346186973
:100660009C681833984224D053469B69591C06F065
:1006700033FC2821504606F02FFC002C1FD0A24648
:100680005BE72821200006F027FC002F94D03C00D7
:1006900068E72821280006F01FFC002CADD02500BB
:1006A00058E72821404606F017FC002C95D0A046BC
:1006B00054E72821504606F00FFC002CDFD14B46B2
:1006C00018699C68183398420CD04B469B69591C9A
:1006D00006F002FC2821484606F0FEFB002C07D05D
:1006E000A14624E72821484606F0F6FB002CF7D166
:1006F000019D2B0028691833AC6898420CD0AB6977
:10070000591C009306F0E8FB2821280006F0E4FBC2
:10071000002C07D0019404E72800282106F0DCFB18
:10072000002CF7D103B0F0BCBB46B246A946A046A8
:10073000F0BDC046F0B54746CE4680B5040083B054
:1007400028200E0006F0B8FB0700030022691830CD
:100750009046656910333861002A00D170E0019538
:100760000F2D4AD8012D00D070E013783B7600237E
:100770007D6143552278E0683A70BB60FB607E6023
:10078000002803D03900FFF7D5FFF860A568B84608
:10079000002D2CD0282006F08FFB04000300183019
:1007A00020612A696E6991461033002A43D0019670
:1007B0000F2E31D8012E46D113782376002366619F
:1007C00083552A78A360E360434622709C6063608F
:1007D000E868002808D02100FFF7ACFFE060AD68B2
:1007E000002D04D0A046D5E7AD68002DFAD1380021
:1007F00003B0C0BCB946B046F0BD1800002201A944
:1008000027F0C0F9019B3861BB612A00414606F020
:100810004DFB019D3869AAE71800002201A927F0C5
:10082000B1F9019B2061A3613200494606F03EFB0D
:10083000019E2069C2E7002EC0D006481BF0EEFDE5
:10084000002D94D0F9E7002EB8D0EDE7002D00D1AF
:100850008DE7DAE7702F0410F0B5DE4657464E46B6
:100860004546E0B5B9B0040016A804911CF00CF898
:10087000654B0822002616939B46B02304A98918CD
:10088000CE500433CE520022002334923593369258
:1008900037935E4B0C2558686D4284466544A846E4
:1008A0002D689B68AC460690039006A86044002122
:1008B000036002931BF06EFF554D564F2B000EA8A0
:1008C00014331693089609960A960B960C960D9675
:1008D0000695079709F00AFF4F4B082107939A46A0
:1008E00010230F9312AB002210939946302304A8D3
:1008F0004118CA5416A807A911961BF04BFF069A77
:1009000006AB0C3A11688C464A216344D868884388
:1009100042490143D9600221996006AB9C46752388
:1009200016686644F35C002B4DD074233022049982
:10093000F25406A826F0AAFA230008332360002305
:10094000636023720C9B002B56D00A9A93422FD8D7
:100950000B9B0021D21A009220000022049327F062
:10096000B9FA5346109806951435169507934845DD
:1009700004D0129B591C049306F0AEFA0EA80797F8
:1009800009F09EF8039B08210693434604AA1B68BE
:100990005218029916A8D1505B4616931BF0B2FF6D
:1009A000200039B0F0BCBB46B246A946A046F0BD17
:1009B0000B9A00219B1A049200932000130000223E
:1009C00027F088FACDE7F36F0593002B19D01A00B2
:1009D0001B7F002B03D075230122F254A5E71000E2
:1009E0000FF064FB059A13680D4A9B699342F2D09D
:1009F000202105989847EEE7200010A927F004F978
:100A0000AFE71BF0FBFCC04658610410146B0410E8
:100A1000306B0410E06B0410B46A0410084000004E
:100A200055030010F0B5D6464F464646C0B586B0D1
:100A300006F06AFC01F09CFF002007F08DF9684B7E
:100A4000002B01D000E000BF192002F02FF9D024C4
:100A5000802324069B046362112002F027F980237F
:100A60009B02A362102002F021F980235B02A362A3
:100A700000220121102002F0A9F8FA20C00002F0A3
:100A8000B1FF584E0E223000574926F009F833685E
:100A90000C3B1B68F318DC6F002C00D19EE0237F19
:100AA000002B00D18CE02723E15C300025F088FF8B
:100AB00025F002FF4D4B01220421102002F09EF888
:100AC0004B4B4C4F984601AB9A464B4B99460120F5
:100AD0000021404207F0AEF943465B69002B5FD02E
:100AE00000236A4602931371059343465246986861
:100AF00003920492002842D05146FFF71BFE0500E6
:100B000003001C009B68002BFBD12B0003941A00F0
:100B1000DB68002BFBD143465B6904920593029589
:100B200054450FD062692169300025F0B9FF0222D7
:100B3000390025F0B5FF20000AF06AFD0400504599
:100B4000F0D1029D002D1AD0E868FFF7DFFC2B00E2
:100B500028691833AC6898420BD0AB69591C06F071
:100B6000BBF92821280006F0B7F9002C07D0250092
:100B7000EAE72821280006F0AFF9002CF7D1336806
:100B80000C3B1B68F318DC6F002C27D0237F002B55
:100B90000AD02723E15C300025F012FF25F08CFEFF
:100BA000642002F01FFF92E720000FF07FFA236815
:100BB0000A219B694B45EED0200098470100EAE7E7
:100BC00020000FF073FA23680B4A9B690A219342B5
:100BD00000D16AE720009847010066E71BF00EFC91
:100BE0000000000050420020A02F0410ED23001050
:100BF000304F00209C2F04105503001070B58468FE
:100C00000600002C20D02300E06924332568984298
:100C100003D0636A591C06F05FF9230060680C3347
:100C200098420BD0E368591C06F056F93821200091
:100C300006F052F9002D07D02C00E4E738212000FF
:100C400006F04AF9002DF7D1736800219A00306848
:100C500006F026F90023F360B360330030681833E0
:100C60007168984202D0890006F036F9300070BDF4
:100C7000F0B5DE4657464E464546E0B5154CA54410
:100C8000012833D0144B9868FFF740FC134E3368AB
:100C9000002B10D0736A74691D1DAC4206D28021EE
:100CA00001CC890006F018F9A542F8D873683068BD
:100CB000990006F011F90A48FFF7A0FF094808F06B
:100CC0002DFE094B9D44F0BCBB46B246A946A0464A
:100CD000F0BDC0466CECFFFF304F0020002B002021
:100CE000AC2E00202045002094130000FD4808F0A1
:100CF00005FE04AB1800FC499A46FFF72DFBFB49A3
:100D00000AA8FFF729FBFA4910A8FFF725FBF949C4
:100D100016A8FFF721FBF8491CA8FFF71DFBF749B0
:100D200022A8FFF719FBF64928A8FFF715FBF5499C
:100D30002EA8FFF711FBF44934A8FFF70DFBF34988
:100D40003AA8FFF709FBF24940A8FFF705FBF14974
:100D500046A8FFF701FBF0494CA8FFF7FDFAEF4961
:100D600052A8FFF7F9FAEE4958A8FFF7F5FAED494E
:100D70005EA8FFF7F1FAEC4964A8FFF7EDFAEB493A
:100D80006AA8FFF7E9FAEA4970A8FFF7E5FAE94926
:100D900076A8FFF7E1FAE8497CA8FFF7DDFAE74912
:100DA00082A8FFF7D9FAE64988A8FFF7D5FAE549FE
:100DB0008EA8FFF7D1FAE44994A8FFF7CDFAE349EA
:100DC0009AA8FFF7C9FAE249A0A8FFF7C5FAE149D6
:100DD000A6A8FFF7C1FAE049ACA8FFF7BDFADF49C2
:100DE000B2A8FFF7B9FADE49B8A8FFF7B5FADD49AE
:100DF000BEA8FFF7B1FADC49C4A8FFF7ADFADB499A
:100E0000CAA8FFF7A9FADA49D0A8FFF7A5FAD94985
:100E1000D6A8FFF7A1FAD849DCA8FFF79DFAD74B6F
:100E2000E2A819009B46FFF797FAD549E8A8FFF713
:100E300093FAD449EEA8FFF78FFAD349F4A8FFF745
:100E40008BFAD249FAA8FFF787FAFFA8D0490430F5
:100E5000FFF782FACF4BFFA819001C309846FFF726
:100E60007BFAFFA8CC493430FFF776FACB4FFFA8C6
:100E700039004C30FFF770FAFFA8C9496430FFF71A
:100E80006BFAC84EFFA831007C30FFF765FAFFA867
:100E9000C5499430FFF760FAFFA8C449AC30FFF7AA
:100EA0005BFAFFA8C249C430FFF756FAC14BFFA84E
:100EB0001900DC309946FFF74FFAFFA8BE49F4301D
:100EC000FFF74AFAA120C000BC496844FFF744FA82
:100ED000A420C000BA496844FFF73EFAA720C0002A
:100EE000B8496844FFF738FAAA20C000B6496844F8
:100EF000FFF732FAAD20C000B4496844FFF72CFA7E
:100F0000B020C000B2496844FFF726FAB320C00001
:100F1000B0496844FFF720FAB620C000AE496844E3
:100F2000FFF71AFAB920C000AC496844FFF714FA79
:100F3000BC20C000AA496844FFF70EFABF20C000D9
:100F4000A8496844FFF708FAC220C000A6496844CF
:100F5000FFF702FAC520C000A4496844FFF7FCF976
:100F6000C820C000A2496844FFF7F6F9CB20C000B2
:100F7000A0496844FFF7F0F9CE20C0009E496844BC
:100F8000FFF7EAF9D120C0009C496844FFF7E4F973
:100F9000D420C0009A496844FFF7DEF9D720C0008A
:100FA00098496844FFF7D8F9DA20C00096496844A8
:100FB000FFF7D2F9DD20C00094496844FFF7CCF96F
:100FC000E020C00092496844FFF7C6F9E320C00062
:100FD00090496844FFF7C0F9E620C0008E49684494
:100FE000FFF7BAF9E920C0008C496844FFF7B4F96B
:100FF000EC20C0008A496844FFF7AEF9EF20C0003A
:1010000088496844FFF7A8F9F220C000864968447F
:10101000FFF7A2F9F520C00084496844FFF79CF966
:10102000F820C00082496844FFF796F9FB20C00011
:1010300080496844FFF790F9FE20C0007E4968446B
:10104000FFF78AF97D487E496844FFF785F98220D9
:1010500000017C496844FFF77FF97B487B4968447D
:10106000FFF77AF98520000179496844FFF774F9A0
:10107000784879496844FFF76FF98820000177497B
:101080006844FFF769F9764876496844FFF764F9E0
:101090008B20000174496844FFF75EF97348744976
:1010A0006844FFF759F98E20000172496844FFF740
:1010B00053F9714871496844FFF74EF991200001D6
:1010C0006F496844FFF748F96E486F496844FFF775
:1010D00043F9942000016D496844FFF73DF96C48DD
:1010E000D8E0C04620450020B02F0410B42F0410D3
:1010F000B82F0410BC2F0410C02F0410C42F0410EC
:10110000C82F0410CC2F0410D02F0410D42F04109B
:10111000D82F0410DC2F0410E02F0410E42F04104B
:10112000E82F0410EC2F0410F02F0410F42F0410FB
:10113000F82F0410FC2F04100030041004300410A9
:10114000083004100C300410103004101430041057
:10115000183004101C300410283004102C300410F7
:101160003030041064370410343004103830041068
:101170003C30041040300410443004104830041057
:101180004C30041050300410543004105830041007
:101190005C300410603004106430041068300410B7
:1011A0006C30041070300410743004105C3704107C
:1011B000783004107C300410803004108430041027
:1011C000883004108C300410983004109C300410C7
:1011D000A0300410A4300410A8300410AC30041067
:1011E000B0300410B4300410B8300410BC30041017
:1011F000C0300410C4300410C8300410CC300410C7
:10120000D0300410D4300410D8300410DC30041076
:10121000E0300410E4300410E8300410EC30041026
:10122000F0300410F4300410F8300410FC300410D6
:1012300000310410043104100831041008080000C3
:101240000C31041018310410380800001C3104104F
:1012500020310410680800002431041028310410E3
:10126000980800002C31041030310410C808000028
:101270003431041038310410F80800003C310410F7
:101280004031041028090000443104104831041092
:1012900058090000FD496844FFF75EF897200001F7
:1012A000FB496844FFF758F8FA48FB496844FFF7E0
:1012B00053F89A200001F9496844FFF74DF8F848BF
:1012C000F8496844FFF748F89D200001F649684452
:1012D000FFF742F8F548F6496844FFF73DF8A020CB
:1012E0000001F4496844FFF737F8F348F3496844CC
:1012F000FFF732F8A3200001F1496844FFF72CF80A
:10130000F04CF14821006844FFF726F8A6200001C0
:10131000EE496844FFF720F8ED48EE496844FFF7CE
:101320001BF8A9200001EC496844FFF715F8EB48C9
:10133000EB496844FFF710F8AC200001E949684424
:10134000FFF70AF8E848E9496844FFF705F8AF20D5
:101350000001E7496844FEF7FFFFE648E6496844B4
:10136000FEF7FAFFB2200001E4496844FEF7F4FFFB
:10137000E348E4496844FEF7EFFFB5200001E24985
:101380006844FEF7E9FFE148E1496844FEF7E4FFFD
:10139000B8200001DF496844FEF7DEFFDE48DF4980
:1013A0006844FEF7D9FFBB200001DD496844FEF721
:1013B000D3FFDC48DC496844FEF7CEFFBE200001C5
:1013C000DA496844FEF7C8FFD948DA496844FEF7AD
:1013D000C3FFC1200001D8496844FEF7BDFFD74DC7
:1013E000D74829006844FEF7B7FFC4200001D5495B
:1013F0006844FEF7B1FFD448D4496844FEF7ACFF17
:10140000C7200001D2496844FEF7A6FFD148D2495F
:101410006844FEF7A1FFCA200001D0496844FEF7E6
:101420009BFFCF48CF496844FEF796FFCD200001CF
:10143000CD496844FEF790FFCC48CD496844FEF79B
:101440008BFFD0200001CB496844FEF785FFCA48D6
:10145000CA496844FEF780FFD3200001C8496844A8
:10146000FEF77AFFC748C8496844FEF775FFD620E3
:101470000001C6496844FEF76FFFC548C549684486
:10148000FEF76AFFD9200001C3496844FEF764FFF4
:10149000C248C3496844FEF75FFFDC200001C14930
:1014A0006844FEF759FFC048C0496844FEF754FF3E
:1014B000DF200001BE496844FEF74EFFBD48BE492B
:1014C0006844FEF749FFE2200001BC496844FEF78A
:1014D00043FFBB48BB496844FEF73EFFE5200001DF
:1014E000B9496844FEF738FFB848B9496844FEF77F
:1014F00033FFE8200001B7496844FEF72DFFB648E6
:10150000B6496844FEF728FFEB200001B44968445F
:10151000FEF722FFB348B4496844FEF71DFFEE20F2
:101520000001B2496844FEF717FFB148B149684469
:10153000FEF712FFF1200001AF496844FEF70CFFEF
:10154000AE48AF496844FEF707FFF4200001AD49FB
:101550006844FEF701FFAC48AC496844FEF7FCFE66
:10156000F7200001AA496844FEF7F6FEA948AA49F7
:101570006844FEF7F1FEFA200001A8496844FEF72E
:10158000EBFEA748A7496844FEF7E6FEFD200001F0
:10159000A5496844FEF7E0FEA448A5496844FEF763
:1015A000DBFE80204001A3496844FEF7D5FEA24837
:1015B000A2496844FEF7D0FEA148A2496844FEF75C
:1015C000CBFEA14861496844FEF7C6FE8320400176
:1015D0009E496844FEF7C0FE9D489E496844FEF758
:1015E000BBFE9D489D496844FEF7B6FE9C484946AF
:1015F0006844FEF7B1FE862040019A496844FEF730
:10160000ABFE994841466844FEF7A6FE97489849C4
:101610006844FEF7A1FE974839006844FEF79CFE37
:101620008920400194496844FEF796FE93483100B2
:101630006844FEF791FE924892496844FEF78CFE9A
:10164000914892496844FEF787FE8C2040019049FA
:101650006844FEF781FE8F4859466844FEF77CFED9
:101660008D488E496844FEF777FE8D488D49684461
:10167000FEF772FE8F2040018B496844FEF76CFE36
:101680008A488B496844FEF767FE13E14C31041029
:1016900050310410880900005431041058310410EE
:1016A000B80900005C31041060310410E809000042
:1016B0006431041068310410180A00006C31041001
:1016C0007031041074310410480A00007C31041099
:1016D000780A00008031041090310410A80A00003C
:1016E0009431041098310410D80A00008085041049
:1016F0009C310410080B000004380410A0310410C1
:10170000380B0000A4310410A8310410680B00004D
:10171000AC310410B0310410980B0000B431041047
:10172000B8310410C80B0000C44A0410BC310410C6
:10173000F80B0000C0310410C4310410C83104108B
:10174000280C0000CC310410580C0000D0310410DB
:10175000D4310410880C0000D8310410E831041092
:10176000B80C0000EC310410F8310410E80C000053
:101770000032041010320410180D0000143204104E
:1017800020320410480D00002432041030320410BE
:10179000780D00003832041044320410A80D000007
:1017A0004C3204105C320410D80D00006432041076
:1017B0006C320410080E00007432041084320410DD
:1017C000380E00008C32041094320410680E0000B1
:1017D0009C320410A4320410980E0000AC320410A5
:1017E000B4320410C80E0000BC320410C43204101D
:1017F000F80E0000CC320410D0320410280F000084
:10180000D8320410E4320410580F0000EC320410F7
:10181000F8320410880F0000003304100C33041059
:10182000B80F00001433041020330410E80F000038
:101830002833041034330410181000003833041017
:101840003010000044330410481000004C330410E2
:10185000781000005033041090100000543304102E
:10186000A810000058330410D8100000F010000039
:101870005C330410081100006033041038110000BC
:101880005011000064330410681100006833041024
:101890006C33041098110000B01100007033041074
:1018A000C81100005030041074330410F811000007
:1018B00058300410C448C5496844FEF74DFDC4487B
:1018C000C4496844FEF748FD92204001C24968447B
:1018D000FEF742FDC148C2496844FEF73DFDC148DC
:1018E000C1496844FEF738FDC048C1496844FEF765
:1018F00033FD95204001BF496844FEF72DFDBE48E9
:10190000BE496844FEF728FDBD48BE496844FEF75D
:1019100023FDBD4829006844FEF71EFD98204001C4
:10192000BA496844FEF718FDB94821006844FEF73B
:1019300013FDB848B8496844FEF70EFDB748B849EA
:101940006844FEF709FD9B235B016B441800B54911
:10195000FEF702FDB448B5496844FEF7FDFCB44B00
:1019600000261D00994618354A461D600123536024
:10197000FE2348469B05136168219660D660566138
:10198000966110301AF0C6FD4B465B680400984221
:1019900000D9F6E05646A74A7168306807F05EFD48
:1019A0004B465B68070019009B4604F05DFA4A4607
:1019B00012688B009B588846002B12D01C685B462F
:1019C000B3461E00656BAF4200D1A6E02468002C30
:1019D00006D0656B3100280004F046FA8845F2D045
:1019E0005E46382005F068FA00220300040004C3B4
:1019F00032680C30934675686060002A00D1B8E008
:101A000003950F2D00D9A7E0012D00D0D0E0137869
:101A100023730021039B62682000A360D15423003C
:101A2000B26924309346F5691C33E061002A00D185
:101A3000A3E003950F2D00D981E0012D00D0B3E084
:101A400013782422A3540021039BE2692362D1541A
:101A500001233A000093414623004846FEF7AEFCBE
:101A6000754B30366B449E4295D19B235B016B4492
:101A700098691C002033984203D0236A591C05F052
:101A80002BFA230020680833984241D0A368591CE0
:101A900005F022FA2300303BA245E9D100220023C1
:101AA000664C0025A260E36022616361A261E3618C
:101AB00022626362082325606360202005F0FCF940
:101AC000060063682060581E400880003618802099
:101AD000800005F0F1F980239B00C3186661E06087
:101AE000A060A06123616662E0612362544C3060B3
:101AF000261D28002571A560E660266165612583A5
:101B0000FEF704FDA560E66026616561FFF7D9F880
:101B10002300303BA245ABD1C0E75B465A68A368BF
:101B20009A4200D052E7002A07D05B4661681868E5
:101B300041F066F9002800D048E75E4690E71800BB
:101B4000002203A926F01EF8039BE06163622A00CD
:101B5000594605F0ABF976E71800002203A926F0F4
:101B600011F8039B6060E3602A00594605F09EF976
:101B70004FE7002D23D103954BE78D421FD10395ED
:101B800061E7012818D080239B0598421AD287006C
:101B9000380005F091F93A003100050005F080F9B0
:101BA0004B461D605C60F5E6002D00D14BE7CEE7AB
:101BB000002D00D12DE7D7E74B469E61F0E7214885
:101BC0001AF02CFC1AF00AFC1012000078330410F2
:101BD00028120000643704107C33041058120000EF
:101BE0003830041070120000803304108812000096
:101BF0004030041084330410B81200005C37041025
:101C0000D012000088330410E81200008C33041056
:101C10001813000030130000943304104813000020
:101C200098330410A033041078130000A433041078
:101C3000AC2E002007690FC790130000002B002076
:101C4000304F0020702F0410F0B5D6464F46464660
:101C50000B008146C0B53D4A84B0884603CB07F0EF
:101C6000FDFB4B465B68060019009A4604F0FCF841
:101C70004A4612688B009B580F00002B0DD01C6841
:101C8000656BAE4234D02468002C06D0656B51469B
:101C9000280004F0E9F88F42F3D0382005F00CF961
:101CA0000022030004C342461268040092464246E2
:101CB000556852460C306060002A3ED003950F2DC7
:101CC0002CD8012D3ED11378237322000023243217
:101CD000A5604355E26124222362A354013300939B
:101CE0003200230039004846FEF768FB1C300FE045
:101CF00043465A68A3689A42C5D1002A06D0434693
:101D00006168186841F07CF80028BCD120001C30C4
:101D100004B0E0BCBA46B146A846F0BD18000022A7
:101D200003A925F02FFF039B6060E3602A00514662
:101D300005F0BCF8039D6068C7E7002DC5D00448D6
:101D40001AF06CFB002DC0D0F0E7C04607690FC742
:101D5000702F0410F0B5DE4657464E4645460B0040
:101D6000E0B58C6887B004338B46924601900293AD
:101D7000002C00D17BE01368576899462369666997
:101D800098463D00B74200D93500002D0DD02A00FD
:101D90004146484641F034F8002806D007DBE368A6
:101DA0000022002B07D01C00E8E7B81BF7D5A3687A
:101DB0000122002BF7D10394002A59D1002D13D012
:101DC0002A004946404641F01BF800280CD00DDBA4
:101DD000019A002310001460137107B0F0BCBB46D9
:101DE000B246A946A046F0BDF01BF1D5039B0024E6
:101DF000002BEDD01C00029BA34268D053466669BD
:101E00005D682A00B54200D93200002A49D0534605
:101E10002169186840F0F4FF002842D0C30F9846AB
:101E2000282005F049F852460500C0CA03001830C2
:101E300010332861002E45D005970F2F33D8012F7E
:101E400048D133782B76002322006F612900C355D7
:101E50004046029B09F00EFC5B465A465B69013323
:101E600053610123019A100015601371B5E71C003E
:101E70005B46DB68A342BED0200009F0DFFB53467F
:101E80001B684669994653465F6803693500984662
:101E9000BE4202D80394040090E703943D0004007E
:101EA0008CE7A81BBAE71800002205A925F06AFEF6
:101EB000059B2861AB613A00310004F0F7FF059FF4
:101EC0002869C0E7002FBED004481AF0A7FA012302
:101ED0009846A5E7002FB6D0EDE7C046702F041056
:101EE000F0B54546DE4657464E460C00E0B5C249C1
:101EF000050093B0200026F085F9002808D10123C1
:101F00002B7613B0F0BCBB46B246A946A046F0BD46
:101F1000BA4E2000310026F075F9002800D187E084
:101F20006B7E002B00D0A6E02100B548FFF78CFEA9
:101F300008AB069306684468002E00D10BE10C94B0
:101F40000F2C00D986E0012C00D096E1337804AA4A
:101F500013740CAB9B4608AA0023079413552B7EE1
:101F6000002B68D0069E0EAB079C01930C93002EAD
:101F700000D171E105940F2C00D9C5E0012C00D0EF
:101F800085E15A4633781372019A5B465C60002300
:101F90001355AC682B1D03940293002C00D174E1FF
:101FA0000C9A0D9FA94692463D00009323696669ED
:101FB00098463700AE4200D92F00002F00D19FE095
:101FC0003A005146404640F01BFF002800D0BDE0DB
:101FD000731B00D5BDE03A004146504640F010FF6B
:101FE000002800D18EE0002800DBBDE00094A4684A
:101FF000002CDBD14D46009BEA6893420CD11A00BD
:10200000029B934208D10398FEF780FA0023029ABC
:10201000AB60EA602A616B610C98019B984204D026
:102020005B469968013104F057FF00232B7607E0E7
:1020300001236B7665E72900584606AAFFF78AFE5A
:10204000069808AB984200D15BE70899013104F08B
:1020500043FF56E70CAB1900002206A89B4625F06B
:1020600091FD0C9B069008932200310004F01EFFA6
:102070000C9C069A70E70CAB9B460EAB5A460C9331
:10208000019300235360137263685846991C25F02E
:102090006BFE5A465B4B52689B1A012B00D807E136
:1020A00002223100584625F0D9FF6268584621685F
:1020B00025F0D4FF0C9B019A2068934234D0220073
:1020C0000832904200D1CCE023605B465B68A26896
:1020D00063600E9BA360002800D1C8E05B461860D7
:1020E0009A6000235A46536003700C98019B9842F3
:1020F00003D09168013104F0EFFE00236B7613E703
:10210000731B26D4A81B6EE70022584605A925F0AC
:1021100039FD5B46059A18609A602200310004F090
:10212000C5FE059C0C9A30E75B465A68002A08D029
:10213000012A00D1B1E0019904F0B8FE5B462068A5
:102140005A680023626083540C98CAE7002800DBB9
:1021500041E7E4684CE71A000CAB9B46002C00D129
:10216000FAE629481AF05AF9E368A6682F0098465B
:102170004D46002E1AD02B00A14655469A4674694A
:102180003A00A74200D92200002A5ED02900306917
:1021900040F036FE002858D0002858DBB146B6681B
:1021A000002EECD153464C46AA461D004346002B58
:1021B00018D04646A946A04655463C0077692200FD
:1021C000BC4200D93A00002A3DD02800316940F0D5
:1021D00017FE002837D000283BDBF668002EEDD133
:1021E00044464D46EB68A3425DD0009B9C4200D123
:1021F00012E79846029F0AE094330410A0330410BB
:10220000AC2E0020FFFFFF3F702F04103400200091
:1022100009F0FEF939000600200009F0EDFA04008B
:10222000230000691833984203D0A369591C04F0B5
:1022300053FE2821200004F04FFE6B69013B6B61C7
:102240004645E3D1E8E6E01BC5E7E01BA4E7F668F6
:10225000A6E70096B668C1E7002C00D081E71A0017
:1022600093E623605B465B6863600E9BA360019B03
:102270000C930EAB1800019333E70CAB9B4608AAF6
:10228000002C00D168E61000EEE60093B3E61A00D9
:10229000002C00D179E618003FE71B7A03705B46FB
:1022A00020685A684DE7029B009A93429DD1AAE6A6
:1022B00001481AF0CBF8C046B0330410F8B5DE463A
:1022C00057464E4645460400E0B58B46456A41698F
:1022D000E269A3696F1AB8109B1A421ED2019B10C3
:1022E0009B18A6682269921B92109B183D4A934244
:1022F00000D172E0236862689846EB1A9B10D31AEB
:10230000012B18D98020800004F0D6FD5B46686060
:102310001A68A3691A60636A1A1D626280225B6888
:1023200092009A18E3612262A361F0BCBB46B246F8
:10233000A946A046F8BD831C99465B009A4234D852
:10234000151E00D1012580230232AD189B059D4248
:1023500046D2A80004F0B0FD4B468246EA1A520865
:10236000636A92005244616990461A1D914203D0FB
:102370004046521A40F0ECFD63682068990004F072
:10238000ABFD53466560236080224346920094462D
:102390003D0063611B684544E360634423612B682F
:1023A0006562E36163442362ACE74B46D21A52088C
:1023B000920090440435414506D9A942E4D04046F4
:1023C0006A1A40F0C5FDDFE7A942DDD06A1A381D60
:1023D000801A404440F0BCFDD6E703481AF036F8B6
:1023E00019F0FCFFFFFFFF1FC8330410F0B5DE46F5
:1023F00057464E464546E0B591B0102806D011B07C
:10240000F0BCBB46B246A946A046F0BD4B07F6D588
:10241000D02301211B065B68CE4C5B0C22680B406D
:102420000293002A20D1002BE9D1CB4ECB4A776909
:102430001370B36821609846F3683C1D9946336970
:102440009A46736A1D1DAC4206D2802101CC8900D8
:1024500004F042FDA542F8D84346B3614B46F36110
:10246000534677623362CAE7511E07290FD8BA482C
:10247000056A8169043DA94204D008C18161013225
:102480002260BCE702A9FFF719FF2268F7E7092AD3
:1024900000D102E10A2AB2D1002BB0D0AE4A506975
:1024A000536A9569D6691B1A9B10013BAD1BAD1091
:1024B000DB015B19916815696D1AAD105B19082B6A
:1024C00000D0EDE0A54B98461F78D368CB1A9A1040
:1024D000002B00DA64E1FE267600B34200DD4DE118
:1024E0000B681F4343467FB21F70531C0E1D7F2B8A
:1024F00006DDDE11B500F6019B1B2E589B00F61879
:1025000033685B003B435BB2961C00D560E10F0073
:1025100008377F2E06DDF711BD00FF01F61B2F588F
:10252000B600BF193E68B60033435BB2D61C00D577
:102530004AE10F000C377F2E06DDF711BD00FF01C9
:10254000F61B2F58B600BF193E68F60033435BB246
:10255000161D00D534E10F0010377F2E06DDF71170
:10256000BD00FF01F61B2F58B600BF193E683601AB
:1025700033435BB2561D00D51EE10F0014377F2E8A
:1025800006DDF711BD00FF01F61B2F58B600BF197D
:102590003E68760133435BB2961D00D508E10F001B
:1025A00018377F2E06DDF711BD00FF01F61B2F58EF
:1025B000B600BF193E68B60133435BB2073200D59F
:1025C000F2E01C317F2A06DDD1118E00C901521ABA
:1025D000315892008918096804A8C9011943434673
:1025E000C9B21970FEF738F9059B5D4A19000498C5
:1025F000019306F033FF5B4D07006B6819009B46A3
:1026000003F032FC2B688A00D3588846002B13D085
:102610001D68049B6E6B9A46059B9946002B2FD034
:10262000B74256D02D68002D06D06E6B594630004B
:1026300003F01AFC8845F3D04B4D0B2228004B4980
:1026400024F02EFA2B680C3B1B68EB18DE6F002E73
:1026500000D1E3E0337F002B00D1CBE02723F15CF6
:10266000280024F0ADF924F027F9049806AB98422D
:1026700003D00699013104F02FFC00232360BEE64D
:10268000B7425BD02D68002DD6D06E6B5946300016
:1026900003F0EAFB8845F3D0CEE70A232360AEE6D9
:1026A000314D15222800324924F0FAF92B680C3BF1
:1026B0001B68EB18DE6F002E00D1AFE0337F002BDC
:1026C0002FD02723F15C280024F07AF924F0F4F8C5
:1026D000D3E7AB689945A5D14A465046696840F0B2
:1026E0008FFB00289ED10CAE0A964B4603930F2B0E
:1026F00072D8012B00D08BE053461B780AAD2B72A9
:102700000022039B0A991B486B60CA542900FFF7FB
:10271000E7FB0A98B042A8D0A968013104F0DCFBBD
:10272000A3E730000DF0C2FC3368134A9B690A210D
:102730009342C8D0300098470100C4E7AB68002B33
:10274000A0D153460CAE0A96002BCED14B460AAD13
:102750000393D5E724450020002B0020B14F002033
:1027600007690FC7AC2E002050420020F833041038
:1027700004340410304F002055030010D3119E0084
:10278000DB013658D31A9B009B591F4343467FB247
:102790001F70531C00D4A9E6DE43F609F643A9E6F0
:1027A000D343DB09DB43EAE7D143C909C9430CE75B
:1027B000F743FF09FF43F7E6F743FF09FF43E1E66D
:1027C000F743FF09FF43CBE6F743FF09FF43B5E6B5
:1027D000F743FF09FF439FE60AAD0022280003A943
:1027E00025F0D0F9039B0A90AB604A46514604F0AD
:1027F0005DFB85E730000DF059FC3368084A9B69A2
:102800000A21934200D12BE730009847010027E7C7
:102810000AAD002B00D173E73000E6E719F0EEFDBA
:102820005503001010B50120FEF722FA10BDC04676
:1028300010B5002005F090FA10BDC046037870B5C1
:10284000DB0704000E00DD0F002B17D103785B07B8
:1028500001D5280070BD01213000494240F030FB15
:102860002378DB07DD0F002B0AD123785B0708D420
:102870000422237801251343237002E00025E8E7B2
:102880000025300040F0ACFAE3E7C04670B50D001B
:10289000012104004942280040F012FB23785B0725
:1028A000DE0F002B04DB280040F09AFA300070BDE8
:1028B0002378DB0704D40422237893432370F2E7C0
:1028C0000026F0E710B5437904791B0223435B052A
:1028D0005A0DC3789B079B0F022B05D0032B15D0F5
:1028E0000020012B08D010BD02291CD0002040235D
:1028F00093424041C0B2F6E702394B4259410D4B79
:102900009C46614491424041C0B2ECE702394B42DF
:102910005941F023002049429B0019404031914227
:102920004041C0B2DFE7044BD3185A425341D8B2FA
:10293000D9E7C046FF03000000FEFFFF8A1870B50C
:10294000914207D27F264C78052C04D00C780919C7
:102950008A42F8D870BD34008D782C406400041988
:10296000ED0963550C7809198A42ECD8F2E7C046A4
:1029700010B5192000F09AF9D02380221B0692048A
:102980005A6210BDD0231B061B68F0B59A0045465D
:1029900090464146894ADE465258574693465A1E4B
:1029A000934130224E465B421A401300844AE0B500
:1029B000944683B063440193824B08269A463500BF
:1029C000083DEA081300019908339B005C58002C6D
:1029D00023D05B46002B2AD001230F2799463900CC
:1029E0002140274213D04B4652464046AB40125836
:1029F0001A420CD1072208002A409200904002009F
:102A0000EB0871483C339B001A502800D847240932
:102A10000135002C01D0B542E1D30836282ECED1A5
:102A200003B0F0BCBB46B246A946A046F0BD0F239A
:102A300019002140234207D047460E3BAB40614876
:102A4000C059184200D18DE02309F11F002BE4D0BA
:102A50000F22100018401A420FD0012345468B4028
:102A6000584A52591A4208D10722CB08114089000E
:102A70008840554A3C339B009850230AB11F002BD5
:102A8000CBD00F22100018401A420FD00123454628
:102A90008B404C4A52591A4208D10722CB081140A8
:102AA00089008840484A3C339B009850230B711F93
:102AB000002BB2D00F22100018401A4241D1230C33
:102AC000311F002BA9D00F22100018401A4252D1FA
:102AD000230DF11E002BA0D00F22100018401A4227
:102AE0005AD1230EB11E002B97D00F221000184090
:102AF0001A420FD0012345468B40324A52591A429E
:102B000008D10722CB081140890088402E4A3C3367
:102B10009B009850240F721E002C00D17DE70123EA
:102B20005146404693400958194200D075E70721A5
:102B3000D3080A40920094403C33234A9B009C50A7
:102B40006BE7012345468B401E4A52591A42B6D1C3
:102B50000722CB081140890088401B4A3C339B0068
:102B60009850ACE707231D40AD00A940164B3C32FE
:102B70009200D15068E7012345468B40114A5259D3
:102B80001A42A5D10722CB081140890088400E4A7D
:102B90003C339B0098509BE7012345468B40094AF4
:102BA00052591A429DD10722CB0811408900884012
:102BB000054A3C339B00985093E7C0467C4A00206E
:102BC00000410140704F0020004001400A4B80004E
:102BD0009C4604236044002901D00C230821002ACC
:102BE00000D10B00026853400C221A4080235B0185
:102BF000184302607047C04604C00140F8B51E008B
:102C0000D0231B061C680700631E9C4130236442CE
:102C10001C40224B15009C46C30807201A00384070
:102C2000800081403C321E48644492009B00115059
:102C3000E418002D11D080239B011C43D023216078
:102C40001B061C68174FA4003B59002B11D0002E07
:102C50001ED03E51002D16D1F8BDC0239B011C4350
:102C6000D02321601B061C680E4FA4003B59002B8B
:102C7000EDD1002EEED000220D200B493E5100F088
:102C80003DF9002DE8D001210D2000F0D5F8E3E753
:102C90000D20054900F026FADBE7C046004101405F
:102CA000004001407C4A0020852900100123D022E9
:102CB0008340120693629361094A8300944640223E
:102CC00063441968C0004A40C0211140802252016B
:102CD00013431960034B9C460523604443607047CF
:102CE00004C0014000400140024B18688007C00F3B
:102CF0007047C04600C006408023DB051868000FFF
:102D00007047C04670B5EFF3108C72B60D4D2B684E
:102D1000002BFCD0BFF35F8F0724CB08C618C05C24
:102D200001230C40A3401C000440034207D103438D
:102D30003370BFF35F8F2C608CF3108870BD100070
:102D400001F002FD2C0100D0F8B54746CE4688467A
:102D500080B5EFF3108C72B6214D2C68002CFCD09E
:102D6000BFF35F8F9A422CD8D4080727055D061958
:102D700001241740BC402C421FD00721012789465F
:102D800009E0D408055D06194C4639001440A140FD
:102D90000C00294211D001329342F2D2012040426C
:102DA000BFF35F8F00220E4B1A608CF3108800284F
:102DB0000FDBC0BCB946B046F8BD2C4310003470E0
:102DC000EEE7BFF35F8F00232B608CF310880120A8
:102DD00040424346002BECD0089801F0B5FCC046B9
:102DE0002C0100D00021044B044ABFF35F8F02C3C3
:102DF0009342FAD17047C046000100D0800100D054
:102E0000044A1078431CDBB2172B00D9102313702F
:102E10007047C046441F002000B5054B83B0010039
:102E2000009318221F230348FFF78EFF03B000BD55
:102E30002C3404108C4A002001238340002904D044
:102E4000034A1360034A13607047034A1360FBE7A9
:102E500080E200E000E100E080E100E00123834047
:102E6000014A13607047C04600E200E0084B103092
:102E70009B688000C358002B07D0064A00209B1A8D
:102E80002F229A424041C0B270470020FCE7C04662
:102E900000ED00E0481F0020024B10309B688000CE
:102EA000C058704700ED00E070B50D00EFF31086DC
:102EB00072B60F4A1368002BFCD0BFF35F8F0D4B27
:102EC00010309B6884001B590B4A934203D09D42EB
:102ED00001D001F051FC074B9B681D51BFF35F8F80
:102EE000BFF35F8F0022024B1A6086F3108870BD1B
:102EF000240100D000ED00E0CD010010F0B55746F0
:102F00004E46DE464546E0B585B006000291170004
:102F1000EFF3108B72B6674A1368002BFCD0BFF337
:102F20005F8F0025644B5D579A46002D00DAA4E0C0
:102F30006B00624C03935B199B009846A146C14409
:102F40004B4652469B79103613705D4BB2009B681E
:102F5000019299580B1B2F2B34D95A4B994200D010
:102F6000A4E0039B584A9C46584B6544AD0063530C
:102F7000434602336519E418554B0121043B1B1BE2
:102F80001B055B0D13436B80524BEF71AB80FF232E
:102F9000AB71029BAB604B460B431900484B019A47
:102FA0009B689950BFF35F8FBFF35F8F0022414B47
:102FB0001A608BF3108805B0F0BCBB46B246A94638
:102FC000A046F0BD01200A008243D379BB422FD82E
:102FD00045464E46130040491B1B5B415943090DB2
:102FE0003A4B63533A4B02356519043B5B1B1B0597
:102FF000354D5B0D2B4373800426B446E0444444B6
:10300000131F1B1B4C46A17102991B05A160494669
:103010005B0D2B43A380314BE77101431360BDE788
:103020005800C01880002018C679BE422BD9020073
:103030000623D356002BF3DA101D8246284880461B
:1030400004267642B446E14450464E46361A3005D0
:10305000400D824656461C48957106439680039A59
:10306000944665441D4AAD00641922604246A3712E
:10307000029BA280E771A36090E701F07DFB002531
:1030800053465D5754E7101D824690884005001551
:1030900084464046D444664604302018301AE02660
:1030A0000005400D360230438046C9E701F064FB5D
:1030B00057E7C046240100D0B64F0020481F00202B
:1030C00000ED00E0CD01001000E0FFFF00A1FFFFD8
:1030D000781F002001BDFFFFAAAA00000148804719
:1030E00001BD0000F0B5DE4657464E464546E0B508
:1030F0000C0083B0EFF3108972B6584A1368002BA6
:10310000FCD0BFF35F8F564B9A68030010339F00CB
:10311000D559544A9046954232D0A54243D0524E9A
:10312000AA1B2F2A2CD801228240924651464F4A90
:1031300012681140019151464D4A1160BFF35F8FF3
:10314000EFF305829346002A33D101232A009A43E4
:1031500093689C4208D177E04B005B189B00F31802
:103160009968A1422AD01A00062151560029F3DAA3
:10317000019B002B19D052463E4B1A603B4B1A6004
:10318000374B9B68DD51BFF35F8FBFF35F8F00222A
:10319000324B1A6089F3108803B0F0BCBB46B246CC
:1031A000A946A046F0BD1500EAE75246304B1A602A
:1031B000E6E79342C9D001F0DFFAC6E70621595687
:1031C000002921DB4A005018800034188046A0688E
:1031D0009860E079D871062020569871002824DB89
:1031E000A488F01A6405241544440019E02400055D
:1031F000400D24022043988052181F4B9200B618AD
:103200001A781970B271B3E7594600290FD1FF310E
:1032100091711A49918018490A789A71184A9B1B32
:103220005B415A43120D0A70A2E71648E3E7164ABB
:103230001649D21A083A5002400D014399801449A8
:1032400052080A43DA8093E70621515613000029F9
:10325000B8DA5A46002AEAD14546DCE7240100D014
:1032600000ED00E0CD010010481F002000E100E06B
:1032700080E100E080E200E0B64F002001BDFFFFEA
:10328000AAAA000001BD0000821F002000F0FFFF7D
:1032900000F8FFFF70B5EFF3058101240443EFF35D
:1032A000108C72B6214A1368002BFCD0BFF35F8FDD
:1032B0001F4B05001F4AED1A6D416A43120D1E4D4A
:1032C0008900AE6852B27658A6421CD006215956E3
:1032D00091421CD012215956914222D01E2159569A
:1032E000914220D02A2159560324914210D0134BE9
:1032F00019781A708171BFF35F8F00220B4B1A602F
:103300008CF3108870BDAB680D4C5C50EFE7002467
:103310006100091989005B18FF2199710949998099
:10332000E5E70124F4E70224F2E7C046240100D0D7
:10333000481F0020AAAA000000ED00E0B64F0020C0
:10334000CD01001001BDFFFF054B064A1360064A80
:10335000136053609360D36013615361936170474E
:103360008080808000E400E004E400E000B5074BCA
:1033700083B001000093002205230548FFF7E4FC19
:10338000002801DB1F23181A03B000BD48340410C5
:10339000BB4F0020024B9C4661448900016070478E
:1033A0004000003410B50400FFF72AFD01002000A2
:1033B000FFF7F0FFFF232371BFF35F8F10BDC046FF
:1033C00010B50400FFF71CFD01002000FFF7E2FF2D
:1033D000FF23A380BFF35F8F10BDC04610B504006C
:1033E0000120FFF719FD044B9C46604480002060DB
:1033F000BFF35F8F10BDC04640000034034B9C46B6
:10340000614489000160BFF35F8F70474000003462
:1034100083680B4810B58446614462440901120177
:103420009A18591854684B6801209C4201D802D060
:103430000020C0B210BD12680B689A42F9D8F7E7B5
:10344000FFFFFF0F0A4B1968EFF3108072B60A688E
:10345000002AFCD0BFF35F8F1B68BFF35F8F002291
:103460001A6080F3108840BF002000217047C046DA
:10347000844F0020F8B557464E464546DE46E0B537
:1034800099460CAB1C780DAB1B78060090469A460B
:103490000768002C11D1BC7B002C42D065003B6832
:1034A0002D19033D59194B78BB73002B00D1FB73C9
:1034B00000238B704B700B7004E065003B682D1986
:1034C000033D5919B2682A4B94464246E3181B0142
:1034D00063441A604A465A600A9A9A600B9ADA6004
:1034E00000238B704B700B707B7B9B46002B2BD08B
:1034F00022005946B8687B6898473A68002816D079
:103500005B4658465B005B445519033BA870D118D5
:10351000D35C002B00D06B705B460C707B73A345B3
:1035200013D0F0BCBB46B246A946A046F8BD5B46E8
:103530005B005B44033BD3189C705119525D002A19
:1035400000D05A705B460B707C7342464B46307D10
:1035500000F0C0FB051E06D05346002B03D121000E
:10356000306800F0DBFD0E9B002BDAD01D70D8E731
:10357000FFFFFF0FF0B5DE4657464E464546002397
:10358000E0B58BB00893674B8200D45800239B466C
:10359000099000F015FB626806000F00EFF310853C
:1035A00072B61368002BFCD0BFF35F8F23689C4674
:1035B0005B7B9946002B00D169E0A2685A4B90468C
:1035C0004B441B01984443461A685B68100019007D
:1035D000801BB941002900DC63E0099800F07AFB08
:1035E00000230022984600230692079300239A4660
:1035F0006368BFF35F8F5A461A6085F3108853469D
:10360000002B08D10028C4D10BB0F0BCBB46B24699
:10361000A946A046F0BD089B414618024B461843F8
:10362000D047626806000F00EFF3108572B613688A
:10363000002BFCD0BFF35F8F002F50DB33003B43E8
:1036400002D02369002B61D12368D97B002907D0E0
:103650004A00521819688C4649466244033A517030
:103660009A7B002A01D14A469A734A46DA734B463E
:10367000E168013BCA5C0132CA545B46236163685E
:10368000BFF35F8F5A461A6085F3108881E70023E5
:1036900000229846002306920793002300209A46B2
:1036A000A6E7002902D1002800D096E70021604655
:1036B00000F0B2FC43461A685B68069207934346E3
:1036C0009B689A464346DB689846E3684B44013B57
:1036D0001B7808931B0203432361002088E72369BA
:1036E000002BB1D0069A079B921BBB41002B15DB28
:1036F00059460491012103914946029141460191A5
:10370000514620000091FFF7B5FEB6E700F058FAE9
:1037100032003B0012184B41002BE9DA0122034B27
:103720005242E5E7604F0020FFFFFF0FFFFFFF7FE2
:1037300010B5144C6368002B04D00A211248FFF71F
:1037400029FE10BD2300114A1021206800F07EFBE5
:10375000032000F029FA032000F026FB03200C4987
:1037600000F072FAFFF74CFB0A4B9C4603232375CB
:10377000D0231B061B6860446375074B80006060A4
:10378000DC60DAE7901F0020844F00201134001025
:103790007535001040000034604F0020004870472D
:1037A000901F0020F0B54E464546DE465746E0B530
:1037B00085B0019310AB1B78060003930023994654
:1037C000984600927268EFF3108B72B61368002B64
:1037D000FCD0BFF35F8F3568AC7B002C3DD0670019
:1037E0002B683F19033FDB195A78AA73002A00D1CE
:1037F000EA73B168474A8C4600980199A2181201F1
:103800006244106051600E9991600F99D1604246F8
:103810009A705A701A706B7B9A46002B67D0220000
:103820001900A8686B6898472A68002852D0534648
:1038300050465B005344D719033BB870D118D35C92
:10384000002B00D07B7053460C706B7354454FD0E7
:10385000F3681B19013B187800E000207368BFF380
:103860005F8F42461A608BF31088002C4FD04B4676
:10387000002B08D10002204305B0F0BCBB46B24685
:10388000A946A046F0BD039B002B3ED00E9B002016
:103890000F999847030004000D000B4335D0002911
:1038A0000ADA009A019B121BAB4100920193002B94
:1038B0000ADB039B994685E700F082F924184D4105
:1038C00000940195002DF4DA0123134C5B42009320
:1038D0000194EEE753465B005344033BD3189C70BE
:1038E000D119D25D002A00D05A7053460B706C7308
:1038F000307D009A019B00F0EDF981460028A7D0A9
:103900002100306800F00AFCA2E70020B4E70120A3
:103910004042B1E7FFFFFF0FFFFFFF7F407D704791
:10392000F0B504000D0006267642F717C646361994
:103930006F4100B584B08F4214D811D000F040F927
:1039400032003B00121A8B41002B15DC002B3ED0BD
:103950002000290000F068F904B080BCB846F0BD32
:103960008642EBD90026002700F02AF932003B00FE
:10397000121A8B41002BE9DD002302930193154BB2
:103980003200009314483B00FFF70CFF0028DFDBF8
:1039900000239846BC46114A114F7B6A9C4504D8C7
:1039A000B96A8E42D4D99C45D2D11168EFF3108008
:1039B00072B60B68002BFCD0BFF35F8F1368BFF3A8
:1039C0005F8F4146196080F3108820BFE5E7002A29
:1039D000BED0D1E745340010901F0020844F002056
:1039E0000040054070B5060000F0EAF8FA22040035
:1039F0000D00002330000021920003F06BF9001944
:103A00006941002902DBFFF78BFF70BD01200149EE
:103A10004042F8E7FFFFFF7FF0B5EFF30583CE46A6
:103A2000474680B505000C0085B0002B12D02C4A0B
:103A30000020536A9C4203D8926A0130AA4204D300
:103A400005B0C0BCB946B046F0BDE01A421E904178
:103A5000C0B2F5E7234E02930193234B020000937B
:103A600030000B00FFF79EFE031EE0DD20BF7168F3
:103A7000EFF3108772B60A68002AFCD0BFF35F8F9D
:103A8000DAB294463068427B62451DD0FF221A406C
:103A900051008946016891448846494641440339AA
:103AA0008978002913D0F1681B0A88464244013AFC
:103AB0001278DBB29A420FD07368BFF35F8F002297
:103AC0001A6087F31088B2E7FF221A40EBE73269E9
:103AD0009342F1D13161EFE7614600F01FFBEBE764
:103AE00000400540901F002045340010F0B5EFF372
:103AF0000582D6464F4646461000C0B51038EFF353
:103B0000108872B6214C2368002BFCD0BFF35F8F66
:103B10000123190081401E4D1F006963AA461D4DF7
:103B200029601D4D2E78AC463500C5402F402B42F4
:103B300009D1BFF35F8F276088F31088E0BCBA46D5
:103B4000B146A846F0BD5346144D5F6A83005D59E7
:103B5000AF420ED3124A8E439B5862461670BFF393
:103B60005F8F0022226088F31088002BE6D09847F0
:103B7000E4E70C4B92009C46624413681360BFF369
:103B80005F8F0023236088F31088D7E7280100D0D7
:103B9000004005403C700540BA4F0020904F002087
:103BA0006C490020D03F054010B50100024A03488F
:103BB000FFF7A8F810BDC04670340410B54F0020C0
:103BC000034B596A0A00986A596A8A42FAD17047C7
:103BD0000040054070B504000D00124A536A1900F8
:103BE000966A536A8B42FAD13000190024184D416D
:103BF000AB4211D80ED02B000A494A6A9A42FCD334
:103C000007D1084A02E0516A994202D1916AA14261
:103C1000F9D370BDA642EED9012301246442E51711
:103C20005B42E9E700400540064A536A9942FCD8E6
:103C300007D1044B02E05A6A914202D19A6A824249
:103C4000F9D370470040054070B504000D00EFF354
:103C5000108672B61A4A1368002BFCD0BFF35F8F30
:103C6000002D1BD02000FFF717F9164981420AD01A
:103C70002000FFF719F901212000FFF7DDF80123EB
:103C8000A340114A1360114BA400E550BFF35F8FAE
:103C900000220B4B1A6086F3108870BD0B4BA200FC
:103CA000D5500122A2400A4920000B7893430B70A3
:103CB0000449FFF717FA00212000FFF7BDF8E5E7F8
:103CC000280100D0ED3A0010386005406C49002012
:103CD000BA4F0020F0B54F46D6464646C0B507005D
:103CE0002C4C616A0D00A66A616AA942FAD18B4226
:103CF00008D805D00120E0BCBA46B146A846F0BDC0
:103D0000B242F7D9EFF3108A72B62348016800294E
:103D1000FCD0BFF35F8F0125BD4020491D4C884674
:103D2000097889462943C9B28C46414660460870E5
:103D3000391D1B48890065630A51B9000B50216A7F
:103D40000020294219D0616A0800A66A616A81428E
:103D5000FAD18B4219D801D1B24216D8CC4516D02F
:103D60000C4B1F201D625D6301230740BB400D4AC1
:103D70001E38136043464A461A70BFF35F8F002215
:103D8000054B1A608AF31088B5E70020F5E701209B
:103D9000F3E7C04600400540280100D0BA4F00209C
:103DA000904F002080E200E0EFF3108C72B60A49D9
:103DB0000B68002BFCD0BFF35F8F01238340074AC1
:103DC0000748136202789A430270BFF35F8F0023A3
:103DD0000B608CF310887047280100D0004005402C
:103DE000BA4F002070B5050014001600002915D048
:103DF0000C00002A12D080686B6898472968002858
:103E00000ED073009B196200033B1219CB18033AC2
:103E10009C7088188A5C002A15D10670200070BD3D
:103E200063001B197200033B9219CB18033A9E7072
:103E300088188A5C002A02D104703400EEE75A70B8
:103E400004703400EAE75A700670E7E730B5836023
:103E50000023CCB243730133047342608373C47391
:103E60000D000068012C06D9421C0133DBB213702F
:103E700003329C42F9D1FF2129404B0059180023FD
:103E800040180338437030BDF8B5CE4647460600AB
:103E90000C0080B5002907D04D0003686D18033D64
:103EA0005A195778002F04D12000C0BCB946B0463B
:103EB000F8BD7900C91903398846434459788946C1
:103EC00000215970517073683A002100806898474A
:103ED0003368002814D042469A18947059195B5DD3
:103EE000002B00D053700F70270049463000FFF7B9
:103EF000CBFF390002003000FFF774FF0400D3E766
:103F0000424641465D19AF709A185B5C002B00D0A9
:103F10006B701470E9E7C046F0B557464546DE467B
:103F20004E46E0B50D006B0001685B19DF1E040012
:103F3000C85D83B00192CA19002850D043001B18F5
:103F4000033BCB185E78B446002E1AD1019E002E9A
:103F500042D0E67B002E04D073009B19CB18033BA4
:103F60005D70A37B002B00D1A573E57300282FD1D2
:103F70000023537003B0F0BCBB46B246A946A0462E
:103F8000F0BD72006244033A89184A7890460022D4
:103F90004A7091465A70010032002000FFF722FF5C
:103FA00043468246002B07D05B0021684344033B15
:103FB000CB185A78002A16D1424651462000FFF706
:103FC00011FF2168019BCA19002BC2D10028CFD054
:103FD00043001B18033BCB1800219970C8E7019BD5
:103FE000002BB6D1C4E75000801803380918487870
:103FF000834648464870587041462000FFF7F2FE5D
:10400000594680462000FFF73FFF4146020020004E
:10401000FFF7E8FE8046CFE7F0B557464546DE4657
:104020004E46E0B583B00191457B04006B0000680B
:104030005B19DF1EC15DC219002952D04B005B180D
:10404000033BC3185E78B446002E1CD1019E002E9F
:1040500044D0E67B002E04D073009B19C318033BA9
:104060005D70A37B002B00D1A573E573002931D1CE
:10407000002328005370617303B0F0BCBB46B24606
:10408000A946A046F0BD72006244033A8018427807
:1040900090460022427091465A7020003200FFF78D
:1040A000A1FE43468246002B07D05B0021684344B3
:1040B000033BCB185A78002A17D1424651462000BC
:1040C000FFF790FE019B01002068C219002BC0D1B0
:1040D0000029CDD04B005B18033BC318002098701B
:1040E000C6E7019B002BB4D1C2E75000801803380B
:1040F0000918487883464846487058704146200061
:10410000FFF770FE594680462000FFF7BDFE41468E
:1041100002002000FFF766FE8046CEE770B504007F
:1041200000292CD0437B8B422ED0056848004018D4
:10413000033828188278002A21D053009B18033BAB
:10414000EA5CEE188A4202D11BE0002A08D0530034
:104150009B18033BEB185A788A42F6D142785A7082
:1041600000230122837043702000FFF7D5FE617B9E
:1041700002002000FFF736FE6073012000E00020FF
:1041800070BD43783370EBE701221900FFF7C4FEDE
:1041900060730120F4E7C04630B50C2083B000F016
:1041A000B3F9FEF7A1FD00280ED0994B994A1A6089
:1041B0005A609A60DA601A615A619A61DA611A6229
:1041C000954A5A6203B030BD944CA06700F0F0F9F4
:1041D0000122934B1A60636C012BFCD10322914B9B
:1041E0001A608E4A936B012BFCD1013301218E4A58
:1041F0008E480093043300F037F905238C4A00936E
:1042000001218C4800F030F98B4B5A68FF2A02D804
:10421000802252005A6080227D4C824B216912011B
:10422000854D1A60002907D0606901F01DFE431C0E
:104230005800C0180338FDD2E0217F4B02201A68D5
:104240001140802252012A4311601968484003211D
:104250000140116004219A681142FCD08022802123
:1042600092012A4309011160802252005A60734B67
:104270002361734B5968FF2900D85A600321684AAB
:104280006F4B116002399A681142FCD0E0201A6825
:104290001040802252011A431060186848400321E0
:1042A00001400220116066498A681042FCD08022D9
:1042B00092011343802212011A608022614B520046
:1042C0004A606361604B5968FF2900D85A608022B8
:1042D0005E4BE16912015C4D1A60002907D06069EC
:1042E00001F0C2FD431C5800C0180338FDD2E02283
:1042F00055490B681A4080235B012B431A608023C9
:1043000080229B012B4312011A608022414B5200F4
:104310004A60E3614E4B5968FF2900D85A608022F9
:104320004C4B216A12014A4D1A60002907D060697E
:1043300001F09AFD431C5800C0180338FDD2E0225A
:1043400043490B681A4080235B012B431A6080238A
:1043500080229B012B4312011A60802380225B0084
:104360004B602C4BD20223623B4B5968914200D2E6
:104370005A608022394B616A1201374D1A60002958
:1043800007D0606901F070FD431C5800C018033865
:10439000FDD2E02230490B681A4080235B012B4399
:1043A0001A60802380229B012B4312011A60802314
:1043B000DB024B60184B6362294B5A68FF2A02D814
:1043C000802252005A608022264BA1691201244D9E
:1043D0001A60002907D0606901F046FD431C5800AF
:1043E000C0180338FDD2E0221D490B681A40802313
:1043F0005B012B431A60802380229B012B43120117
:104400001A6080235B004B600E4BA361DAE6C04666
:10441000904A0020006CDC021BB7000000800040C6
:104420003CB0004030B00040002F6859008002408E
:10443000008C864700C0024030800040001BB7005F
:104440003C800040405973075480004054B0004005
:104450006080004060B000406C8000406CB0004064
:104460004880004048B00040F8B5040021481D00D5
:1044700017000E0001F0F8FC0100380001F0F4FC18
:10448000069B29041B0319432368002B20DB1A4BCE
:104490001A4DE21853425A4180235B019C46120395
:1044A000174B62441A60174B1A601700AB689F43A2
:1044B000FBD1C022231D92011A4321232660A06054
:1044C00013602368002BFCDA0823E1601360F8BD59
:1044D0003F2322681340B342D9D1A3681B051B0DAB
:1044E0008342D4D1EE22E368D20213408B42CED174
:1044F000EDE7C046001BB7000040FDBF00C0004014
:1045000000E0004000F000408023024A9B0003438B
:10451000D36270470080054010B5140080221B4B09
:10452000D2051A6000281AD00123194A1843194BE2
:10453000DA61194A42401A62596298628022134B2A
:10454000D2051A601549164A1160E022D2041A6099
:10455000002C07D18022134B12061A6010BD0D4BA0
:10456000D861EBE763011B1B9A008023121912012B
:104570005B049A4200D30C4A0C4B1A60054B5A60FC
:104580008022084BD2051A60E8E7C04600B005401B
:10459000D3C007B0008005402D3FF84FFCFF01005D
:1045A0000820014000A00540FFFFFF00504F002001
:1045B000AA23064A1B0113602F230549D360054B2C
:1045C00019605368002BFCDA7047C0460040024077
:1045D00000B0FA00006002402C4B2D4A70B51A6002
:1045E0002C4A2D4B2D491A6014008B689C43FBD13B
:1045F0002B4D2C4EB54208D2013E761BB60808CD95
:10460000984723000134B342F9D1FFF7C5FD264A8C
:10461000214B1A60214A9368DB43DB01DD09002B43
:10462000F9D14022214B224C224E9A675A671A67D1
:10463000DA66B44208D223682000002B20D0083468
:10464000FEF7BEFEB442F6D31B4E1C4CC022A1683E
:10465000300002F02BFCA660FEF7C4FBFEF774FEF0
:10466000FFF766F8164C174EB44208D2013E361BCF
:10467000B60808CC98472B0001359E42F9D170BD91
:104680000834FEF78FFEB442D5D3DDE700E00040EA
:10469000BFCDFBFEFE7F3C0000F0004000C00040AC
:1046A000C82A0020D82A0020FFFFFF0100F00140A7
:1046B000C02A0020C82A00200000002000ED00E0F1
:1046C000D82A0020FC2A002000BEFDE7094A03008A
:1046D0001068002805D00849C3188B4207D813601A
:1046E000704706480449C31810608B42F7D901206F
:1046F0004042F5E72C4B002000000420BC4F002076
:1047000000207047012040427047C04610B5FFF7B7
:10471000DBFFC04610B50C0082B01900002A0AD099
:10472000064B0192009302002300054801F002FBB2
:104730000120FFF7C9FF034B1A00F2E7943404107D
:10474000A43404109C6A04100FB400B5084883B068
:1047500002F0F2FC049B002B07D005A91800019180
:1047600001F008FB034802F0E7FC0120FFF7ACFF73
:10477000D4340410E434041010B50148FFF7E4FF0A
:10478000E83404109A4200D2885470477047C046FB
:10479000F8B557464E464546DE46E0B599460A9B73
:1047A00007009A460D9B8846934615000B9E9B0773
:1047B00010D10C9B9E420DD29D1B14000E005D4437
:1047C00022004B46013431002020B847A542F7D1E2
:1047D000B0460B9E002E27D0444675195346AA1B9F
:1047E000013E985D21004B46B847002EF6D12300CC
:1047F0002C0098460D9B9B070FD55B46E51A0C9B3A
:10480000AB420AD94646984622004B46310020204A
:104810000135B8470134A845F6D82000F0BCBB46A6
:10482000B246A946A046F8BD2C00E3E7F0B54F46D6
:104830004646D646C0B584B098460EAB1B78129F4C
:10484000994694460D9C109B119EBA0725D4002EC4
:104850004BD19C4200D3BFE001223A4092461F2C2C
:1048600000D9B8E00C9A551E302201E0202C03D06C
:1048700001342A55A342F9D85246002A0DD0A64247
:104880000BD9202C44D00C9A551E302201E0202C4C
:104890003ED001342A55B442F9D1FA064DD57A05F5
:1048A0003FD4002C39D10F9B102B00D179E00F9B06
:1048B000022B00D18AE030230C9A012413704B465E
:1048C000002B3FD02D230C9A135501340C9B6246CC
:1048D00000930397434602960194FFF759FF04B0F3
:1048E000E0BCBA46B146A846F0BD012215003D40E5
:1048F000AA463A422FD04A46002A02D10C323A4206
:1049000000D0013E9C42BAD21F2CABD9202E27D911
:104910002024FA06DAD57A0503D4A3422DD0A64284
:104920002BD00F9B102B32D0022B20D0202CCDD09F
:1049300030220C9B1B191A700134202CC6D04B4618
:10494000002BBFD17B070DD43B07BFD520230C9A8A
:1049500013550134BAE79C429FD21F2C00D881E73F
:1049600020249AE72B230C9A13550134AEE7202C10
:10497000ACD00C9B1B1901343AE0631E012C92D081
:104980000F9A102A2AD0022A2FD01C00D0E7BB068B
:104990000ED4202C9AD00C9B1A1901347823137052
:1049A000C4E7BB060DD478230C9A01241370BFE72B
:1049B000202C00D18AE758220C9B1B191A70013455
:1049C000B4E758230C9A01241370B1E70C9A6033B2
:1049D00001241370ACE7202400265EE7023CBA06EF
:1049E000E9D40C9A12191C00D8E70C9A9246534449
:1049F00062221A709AE7C04610B5002800D110BD97
:104A000002F04EFBFBE7C046F0B5DE4657464E4689
:104A10004546E0B59BB09B46249B89469846259B1E
:104A20000B900C924046424619009A4601F0EDFC6C
:104A3000002800D0D8E0012240465146774B524230
:104A400001F0DEFC002800D0CEE0012240465146B5
:104A5000734B524201F0BEFC002800D0C4E000229B
:104A600000234046514601F0B5FC002800D0B9E1D2
:104A7000424653460A9209938023289ADB001A4043
:104A80000E92289A1A4201D1062326930A9A099B6C
:104A90001600134300D0C7E0289B002500261B0505
:104AA00000D49BE100230D93269A0D9B9A4200DCD3
:104AB0009FE1D01A431E26938023289ADB001A43D5
:104AC0000023002728920D93279B0024BB4200D986
:104AD000DC1B0223289A1A400E92289A134203D014
:104AE0007B427B415B421C400D9B002B07D00A9808
:104AF00009992A00330001F004FC0A900991002270
:104B000000234046514601F065FC002805D0802076
:104B100000068446099961440991289A414B0B9DEE
:104B200013400493269B0A9A0293099B03940092D4
:104B3000019349465B4628000C9A00F08BF904006B
:104B4000002F62D0289B220098061F23C01798438D
:104B5000631C984649465B466530A8470D9B002577
:104B6000DA179C18DB0F9A465440013F01E0202DD4
:104B700013D00AAA94461F23200063440A2101355A
:104B80005E1901F071F93031317020000A2101F015
:104B90006BF926000400092EE9D8052306930023AB
:104BA00004930A330393534605970B9F029312AB6A
:104BB000009342465B46494638000195FFF736FEB2
:104BC0000E9B0400002B20D00C9BC51A279BAB42E8
:104BD0001BD91E0022005B46494620200135B847FC
:104BE0000134AE42F6D810E0289B42460493279B3E
:104BF00049460393269B0B980293534600920193D8
:104C00005B460C9A00F026F9040020001BB0F0BCB3
:104C1000BB46B246A946A046F0BDC046FFFFEF7FA7
:104C2000FFFFEFFFFFF7FFFF734B099F9C467800E4
:104C3000400D604401F0FCFB704A714B01F07FFBBA
:104C4000704A714B01F054FB3B03704A1B0B1A4333
:104C500004000D00300011006D4B002201F03FFBFD
:104C60006C4A6D4B01F06BFB02000B002000290029
:104C700001F03EFB01F0F4FB0D9001F0D9FB674A17
:104C8000674B04000D0001F05AFB0022654B01F058
:104C90002FFB01F0E5FB644A0600644B200029006D
:104CA00001F04DFB040030000D000F9601F0C0FB39
:104CB0005F4A604B01F043FB02000B00200029001B
:104CC00001F00DFB02000B0006000F0001F037FBA6
:104CD000320004000D003B003000390001F008FBF9
:104CE000002210901191544B2000290001F009FB83
:104CF0000022524B01F0FCFA02000B0020002900B8
:104D000001F0FFFA00224E4B01F0F2FA02000B0014
:104D10002000290001F0F5FA0D0080210400320086
:104D20003B000020C90501F0DAFA02000B00200068
:104D3000290001F0DDFA02000B001098119901F032
:104D4000E0FA0022314B01F0D3FA3E4B0F9C9C4617
:104D500064440022230501F0F2FA05000E0002006F
:104D60000B000A98099901F035FB00280AD00D9B29
:104D70002800013B31000D930022304B01F0C1FAB5
:104D800005000E00C6270D992B0063318F42BF41ED
:104D900028997F420437090500D495E6334300D1B2
:104DA00082E6099C284A2100284B0A9801F020FB42
:104DB000002808D000222100254B0A9801F00AFBA8
:104DC000002800D070E6269B002B00D17CE60E9BCD
:104DD0005A1E9341269AD31A269375E60023042778
:104DE0000D9371E643460A9380231B0653440993AF
:104DF00042E6002326935FE601FCFFFFFB799F500C
:104E00001344D33FB3C8608B288AC63F0000F03FED
:104E10000000F83F61436F63A787D23F71A3790910
:104E20004F930A400000E03F1655B5BBB16B0240FE
:104E3000EF39FAFE422EE63F00002C4000002440ED
:104E400000001840FF0300002D431CEBE2361A3F20
:104E500080842E41F0B54E46DE4657464546E0B5C5
:104E600097B09946209E219F229B834698460791A2
:104E70000C923B0032003000390001F0C6FA0028E5
:104E800000D0A9E1012230003900CA4B524201F0A2
:104E9000A1FA002800D0E1E0012230003900C64B21
:104EA000524201F0ADFA002800D0B7E000223000F5
:104EB0003900C24B01F0A4FA002800D099E000228A
:104EC00030003900BE4B01F085FA002800D090E098
:104ED000002200233000390001F07CFA002800D0C5
:104EE000B1E000230D93249B5B0501D40623984673
:104EF00008AB9C461722002430234146624404E05C
:104F0000013413550139202C01D00929F8D88846DD
:104F10003000390001F0A4FA4346DA00A94B05003D
:104F20009B181A685B680892099301F081FA0200E5
:104F30000B003000390001F0D2F9089A099B01F00A
:104F4000FEF90A900B9101F0AFFA824601F06CFA7B
:104F500002000B000A980B9901F0C1F900229A4B4C
:104F60000A900B9101F04CFA002800D1C0E0012317
:104F70009C46E244504601F057FA02000B000898A4
:104F8000099901F02DFA002802D000239A46013534
:104F90004346002B6AD008AB17269C46089566440A
:104FA000554614E001235B4243440A2128009A46F7
:104FB00000F05AFF013430313719397028000A21C6
:104FC00000F052FF092D00D8D0E0D0460500202C7B
:104FD000E8D10EAB98460323249A1340012B00D14D
:104FE00096E02023249A01930392239A4346029247
:104FF0001EE0249B58460493239B0096019703933D
:1050000043460C9A029307994B46FFF7FDFC17B0F5
:10501000F0BCBB46B246A946A046F0BD249B5B0748
:105020000ED40322694B2499019203912399029192
:10503000009358464B460C9A0799FFF7A9FBE6E701
:105040000422634BEFE73B0032000020002101F017
:1050500046F9012306000F000D9344E7249B0393B8
:10506000239B0293042301935A4BE1E7280001F0AC
:10507000DFF902000B003000390001F030F9524B2B
:10508000002206000F0001F0A5F90EAB984600289B
:105090000AD10022300039004B4B01F0B1F9002851
:1050A00002D1EB0700D50135202C94D008AA9446F4
:1050B0001723280063440A2101341E1900F0ACFEB6
:1050C0003031280031700A2100F0A6FE051EEBD118
:1050D0000323249A1340012B1BD0202C00D180E7FE
:1050E0000D9B002B35D02D224146631C0A5579E7D4
:1050F00000220A980B99344B01F06CF9002800D07B
:1051000046E75346002B51D101239C46E2443FE73A
:105110002024239B002BE0D00D9B002B03D1249A4D
:105120000C33134202D0239B013B2393239BA342C6
:10513000D3D908AB9C46172230236244202C00D1DF
:105140004FE72399013413558C42C6D0202CF8D157
:1051500047E7249B5B0724D4249A2300120700D43A
:1051600040E72022414601330A553BE75746089D58
:10517000202C00D12DE7220030214046002F09D0FD
:105180000132B154202A00D123E7D3431B191B1845
:10519000002BF5D10EAB98462E234146541C8B5460
:1051A00082E72B224146631C0A551BE7DB0700D42C
:1051B000EEE6A9E7FFFFEFFFFFFFEF7F65CDCD41F3
:1051C00065CDCDC1F03604100000E03FF43404108A
:1051D000F834041004350410249B0393239B02939A
:1051E00003230193004B23E700350410F0B5DE469E
:1051F0004E4657464546E0B59FB01C00289B914659
:105200000993C94AC94B8B4608901A60002900D1FE
:1052100018E2002320789A46002800D11AE22600DE
:105220001D005C460AE02A006F1C4B46089D2100C9
:10523000A8473D0001363078002870D02528F2D1EB
:1052400010239B46083B9A46043B9846023B0021AC
:105250009C46721C107816000300203BDBB2102B1A
:1052600003D8B34F9B00FB589F460300303B092BEC
:1052700032D900230A932A2868D0002398462E2882
:105280003ED00300683BDBB2122B1CD8A94A9B001E
:10529000D3589F46012301321943DBE763460132AD
:1052A0001943D7E7434601321943D3E75B4601323E
:1052B0001943CFE7534601321943CBE780235B0004
:1052C0007078194301360300253BDBB2532BAAD873
:1052D000994A9B00D3589F4600270300B800C01985
:1052E00001364000C018337830381A00303A0700D1
:1052F000092AF3D90A901800002398462E28C0D115
:1053000080237078DB0019430300303B721C092BAB
:1053100000D8A1E12A2800D1B2E11600B1E7A346E6
:10532000AA462C00D14503D801235B424B449A4640
:105330004B46524659460020089DA84720001FB002
:10534000F0BCBB46B246A946A046F0BD099B40CB87
:105350000A96002E03DB50780993561C8DE72838F7
:10536000014370420A9009935078561C85E77828CB
:1053700000D1DFE1582800D14CE26F2800D14FE383
:10538000622801D100F030FC10230A009A430B92EE
:10539000692801D000F0A9FC0A230C934B0500D525
:1053A000D0E10B9A802311009B0019408B461A42D2
:1053B00000D0A1E2802311005B0019408A461A4206
:1053C00000D0B6E313005B0600D5EDE213000999A7
:1053D0001B0601D400F076FC08C91BB2D8171A18B6
:1053E000424092B209919346DA0F1292002B09D1F2
:1053F000802310220B99DB000B4091430B91002B73
:1054000000D0E4E20B9A6123920600D541230EA955
:105410001F228C46DBB262440A3B5F461395A346CB
:1054200055460C9CB2460D9316000AE03033DBB2B1
:1054300001357355A74200D2EDE2202D00D1EAE2FA
:1054400007002100380000F00FFDCBB20929EDD98B
:105450000D9A94466344DBB2EAE780239B007078A0
:10546000194301362FE77078682800D1CDE18023F9
:105470000136194327E770786C2800D1BFE18023FB
:105480005B00194301361EE7462800D19BE1072245
:10549000099B0491073393430A9A190003924246E9
:1054A00002920CC908980092019309912A004B4678
:1054B0002100FFF7CFFC01360500BCE62A006F1C77
:1054C0004B46089D21002520A84701363D00B2E645
:1054D0008B0700D4ADE1099B2A009A466B1C9846C5
:1054E000534601CB21009A46089F4B46C0B2B847AD
:1054F0000A9B9C466544012B00D886E2089B4746E0
:10550000B04626004C4699463A0023000137310048
:105510002020C847AF42F7D1A14653463400464643
:105520000993013687E6C046ED5100104C4F00202C
:105530000C350410503504109C350410099B04CB25
:105540009B4643460992002B00D1C6E013789C4647
:10555000002B00D1BDE34346013B099A0133D0182B
:105560000A9F130001E0834203D05A780133002AD6
:10557000F9D1099A0A979B1A0B9380230A00DB0042
:105580001A400C92194204D00B9B434501D9434663
:105590000B9302231A000A400D920B4200D187E1BF
:1055A0006046002800D168E10C9B002B00D10DE182
:1055B000A844C246099B57465B1B9846089BB246C7
:1055C0002A0026004C46994609E023003100551C6C
:1055D000C8474346585D002800D126E12A0097427B
:1055E000F3D1A1463D00340056460D9B002B00D060
:1055F00043E15B46013609931DE6099B1A0008CA80
:105600009246002B48D0212211438B460EA8844697
:105610001F216144099500220F27A4460D0002E0D6
:10562000202A0CD00B003C001C4020003730092CF5
:1056300000D807380132A85419090F2BF0D8644656
:10564000099D32E0DC4B2078089300239A4600281D
:1056500000D0E4E5002465E6434606000A9F980072
:10566000C01801324000801916780300300030382D
:10567000303B0928F3D93000984616000A9700E617
:10568000099B023604CB9046D2434046D2171040C5
:10569000804609933078F4E51022080090431132D7
:1056A0001043834600224905B0D55B460693082384
:1056B000059343460493102303930023029316ABF0
:1056C000019200932A004B4621000898FFF7AEF89C
:1056D0005346050001360993ADE513789C46002B2F
:1056E00000D1F7E202235B4237E7202302009A430E
:1056F000472A04D180231B011943022398434528DC
:1057000001D1202319430722099B049107339343B6
:105710000A9A19000392424602920CC90898009214
:10572000019309912A004B462100FFF76DF90136DC
:10573000050080E510230C930C230A009A430B927A
:105740004B0503D501230B9A9A430B92692800D18C
:1057500027E6642800D124E60B9A802311009B00E1
:1057600019408B461A4200D066E1802311005B008D
:1057700019408A461A4200D039E213005B0600D570
:105780003CE113001B0600D4A6E2099B04CB1204E3
:10579000120C934609935B46002B00D09AE10B9ABA
:1057A0001033110099430B91520500D492E100236C
:1057B0009A460B9B06930A9B0593434604930C9BC6
:1057C000039300230CE12023194360E6099B0A9A06
:1057D0005B1B98464B4691461F00B2462600089C2C
:1057E0002A003B003100A04743460135585D0028A0
:1057F000F6D14A463400B94656460A92F5E6C02329
:105800009B00B078194302365DE5C023B078194398
:10581000023658E50C230A009A4314331A43103B0E
:105820000B920C934B058DD496E7A1463400564657
:10583000DBE60A9A012A00D853E26B1E9F18089BE8
:10584000B04626004C4699462A0023000135310017
:105850002020C847BD42F7D1A14634004646099BE7
:105860003A0001CB210098467D1C4B46089FC0B2F0
:10587000B847434601360993DDE40B9B0A9AA846D4
:105880009A4200D8B5E694466544ED1A089B47460F
:10589000B04626004C4699463A00230001373100B5
:1058A0002020C847AF42F7D1A14634004646A0E6C3
:1058B0000B9A0A99531C914200D814E24B199B1A77
:1058C0001F00089BB24626004C4699462A0023003A
:1058D000013531002020C847BD42F7D10A9BA146BF
:1058E00001330B93099B34001B7856469C46604657
:1058F000002800D058E67CE60722099B0733934333
:10590000013294469C4462465F6809921A68FB170C
:105910001093119310981199030053400E930B00AC
:105920007B400F9394460E9A0F9B121A8B410E9256
:105930000F93FB0F6246129300233A439B463DD0E0
:105940000B9A6123920600D541230022DBB20EA9F7
:105950000A3B8C4692460D9343461F326244139590
:10596000159655460E9E0F9FA24690460C9C14938A
:105970000CE03032D2B2434601355A55BB4500D116
:105980008AE1202D00D18AE106000F0022000023C9
:105990003000390000F0A6FAD2B2092AE9D90D9BED
:1059A0009C466244D2B2E6E7FF23099904C913403A
:1059B0001A00099117E5C0468D4700100B9A103365
:1059C000110099430B915205BAD500239A460B9BBF
:1059D00006930A9B0593434604930C9B0393129BE7
:1059E00002935346019316AB2A00009321004B46C5
:1059F0000898FEF71BFF013605001CE4FF22099BF7
:105A000002CB11408B460993C5E6534645460993A0
:105A10000136FFF710FC56465C46AA46139DD6E7B2
:105A200008230C930B910B99642800D084E60B9B00
:105A30005B0500D586E6B4E40722099B0733934350
:105A4000013294469C44624609921A685B681000D1
:105A50009B4613005A46134307D10B9A103311008B
:105A600099430B91520500D5A1E60B9A612392064A
:105A700000D541230022DBB20EA90A3B8C46924698
:105A80000D9343461F3262445F461295A346554626
:105A90000400B24690460C9E13930DE03032D2B211
:105AA000434601355A550023BB4200D100E1202D69
:105AB00000D100E104000F00320000232000390073
:105AC00000F010FAD2B2092AE8D90D9B9C46624434
:105AD000D2B2E5E70B9A6123920600D54123DBB2EF
